:20000000003A0120AD49020039FB021039FB021039FB021039FB021039FB021039FB0210E9
:1C00200039FB021039FB021039FB021039FB021039FB021039FB021011FB021002
:20003C002DE9F04F99B0054680780224532800F2C485DFE810F054009900A800B800C8000B
:20005C00DA00EA000C011B01C2052A0138015901C205C205C205C205C205C205C205C205DA
:20007C00C205C205C205C205C205C205C205C205C205C205C205650188019401A001AB0106
:20009C00BA01D401EB0107023A02C205C205C205C205C205C205600276028C02A202B80213
:2000BC00CD02DE020303C205C205C205C205C205C20538034C036003C2056D037703940390
:2000DC009D03A903B503C403CE03F1030E04310439044B045804640488048F049204EC1C20
:2000FC00E97A2A7B002320461DF0F6F98DF8180006AB65200021012221F0D4FBDFF8100B6E
:20011C000078012800F25885204628F019FB002800F0528505460079012840F04D8528F0CB
:20013C00A1F800274FF400018DF83F008DF83800000ACDF83A108DF841708DF83E708DF817
:20015C0040008DF839000EAE214606F10A0028F075FB29781522334601706978877041708E
:20017C004520FF2100F026BD28F00EFB6979AA790023002424F09CF98DF838000EAB6520FA
:20019C00012100F050BC28F0AFF828F01BFA01460EA8022228F0ACFA8DF8180006AB652087
:2001BC00022100F040BC28F09FF828F00BFA01460EA8032228F09CFA8DF8180006AB6520A5
:2001DC00032100F030BC28F08FF828F0FBF9EA7901460EA80023002425F06AFF8DF8180096
:2001FC0006AB6520042100F01EBC28F07DF828F0E9F901460EA8052228F07AFA8DF81800EA
:20021C0006AB6520052100F00EBC0020DFF8284A27F056FFADF85800681DA0478046E81DA3
:20023C00A04795F809B0824605F10A07BBF1100F00F2AB830EAC5E46002E00F0A983384695
:20025C0028F03CFB24F8020B013E0237F4E728F04BF828F0B7F901460EA8102228F048FA0B
:20027C008DF8180006AB65200721DCE328F03CF828F0A8F901460EA8112228F039FA8DF8A3
:20029C00180006AB65200821CDE328F07DFA6A7B691D0023002422F0F5FE8DF838000EAB5F
:2002BC0065200A21BFE302208DF8200028F06CFAADF81800681D28F001FBEA79064605F190
:2002DC0008018DF838200EAF781C27F0D9FD06A831463A46002300241FF082FC8DF8580088
:2002FC0016AB65200B219EE328F04EFA0021002422F090F98DF838000EAB65200C2192E312
:20031C000020DFF8344927F0DBFEADF85800681DA047804695F80F9005F11000A04705F11F
:20033C001304AD7C83460F2D00F244830EAE2F46002F00F04283204628F0C0FA26F8020B2B
:20035C00013F0234F4E727F0CFFF27F0C0FE27F087FD40F0438306A828F070FA43E327F078
:20037C00C3FF27F0B4FE27F07BFD40F04A8306A828F064FA4AE328F007FA28F0F1F88DF85A
:20039C0038000EAB6520232100F013BCDFF88018C8208DF81800E81C0978002900F07E8335
:2003BC0027F0D0F98DF81800A0E36879EE1CFE280BD12878082808D3A879FF2805D13046F5
:2003DC0028F07CFA314624F013FB0EA9304626F0AFFE002800F08E83054600249CE3E81CCF
:2003FC00042125F079F8E97928F08AFADFF83C188DF83800022027F0E1FADFF834180320F6
:20041C0027F0DCFA0EAB65202621D2E328F0B6F9044605F10E0028F051FA297C6A7C03464D
:20043C00E878CDE90012AA1D214624F06BFDDFF8F8178DF83800042027F0C0FA0EAB6520F8
:20045C002721B6E34FF00208E81C8DF8408028F035FAADF8380068798DF85800A81D28F04E
:20047C002DFA2E7A044600270935CDE9005716A80EA92246334620F00DFA27F059FF10D118
:20049C00DFF888078DF84080CDE9005722463346C08AADF8380016A80EA920F0FBF98DF882
:2004BC00180006AB6520282183E30226E81C8DF8406028F003FA28F085F8ED7904460EA8C2
:2004DC00002321462A4626F0F1FC27F031FF0ED1DFF838078DF8406021462A460023C08A5E
:2004FC00ADF838000EA826F0E1FC8DF8180006AB652029215DE327F0F7FEADF83800681D8F
:20051C00042124F0E9FF6A7AAB7A0024014600940EA824F023FD8DF8180006AB6520302188
:20053C0081E227F0E1FE28F020F8312201238DF8580016A8CDE90004DFF8E8060EA920F0BE
:20055C00A9F98DF8180006AB652031216BE227F0CBFE28F00AF8322201238DF8580016A85E
:20057C00CDE90004DFF8BC060EA920F093F98DF8180006AB6520322155E227F0B5FE27F07B
:20059C00F4FF332201238DF8580016A8CDE90004DFF890060EA920F07DF98DF8180006AB86
:2005BC00652033213FE227F09FFEADF83800687B0024691D0094C0F3400200F001030EA8D4
:2005DC0022F00AF88DF8180006AB652034212AE227F08AFE6A7BADF83800691D0EA80023F7
:2005FC00002425F077F98DF8180006AB6520352119E22C4614F8030B04281ABFE8782C1DD8
:20061C0002208DF84000204628F058F9DFF81066A5780121E278ADF838000023002431705D
:20063C000EA829461EF050F88DF818002846347025F08CF906AB65203621F4E128F0A4F8C4
:20065C00ADF83800687904218DF84000A81D24F043FF0446AE7AEF7A05F10C0028F02EF99F
:20067C00DFF8A8850546214632463B4627F005FD0EA820F0EBF827F05BFE10D10220214613
:20069C0032463B468DF84000B8F81600ADF8380027F0F3FC0EA820F0D9F88DF8180006ABF2
:2006BC006520372185E26C7828F06EF80146DFF86C05007820F0A6F88DF8380004F0E00032
:2006DC00202840F079820EAB65203E2171E26C7828F05AF80146DFF84405007820F080FDE1
:2006FC008DF8380004F0E000202840F065820EAB65203F215DE200206C788DF83800DFF879
:20071C0010050078411E022980F09181022092E128F03AF827F024FF8DF838000EAB652010
:20073C00422146E200200690ADF83C000E90E81C06A925F068FE8DF83800069850B127F03C
:20075C00A3FC81788DF83B10C1788DF83C1000798DF83D000EAB6520432106222AE2E81CF6
:20077C0026F0F0FF8DF838000EAB6520442120E228F00AF86979AA790DF094FE8DF838008B
:20079C000EAB6520452114E227F0FEFF6979AA7919F0C8FF8DF838000EAB6520462108E26E
:2007BC00EC7827F0EBFF0146204621F0C9FFB0FA80F0472140098DF838000EABBFE1E878F1
:2007DC0000248DF8384022F0B1FC0EAB6520472129E1E8780EA925F08FFC06468DF81800CD
:2007FC0040000130C5B2284628F06CF8002800F0A181044600F8016B00219DF81820914262
:20081C0080F0BC809DF83830013100F8023B9DF8393000F8013CF2E70EAC1321204627F035
:20083C00EBF9EE7827F0AAFF0146304625F0B6F8002800F086810021231D8DF8381027F0AE
:20085C0023FCC11C827818468DF83B2027F018FB7AE1002012218DF818000EAE304627F08A
:20087C00CBF9EC7827F08AFFAA79ADF838000F2A28BF0F228DF83A201AB1F01CE91D27F070
:20089C00FFFA0EA9204601221CF0C6F98DF8180006AB65204B218CE127F0EAF88DF83800D6
:2008BC000EAB65204C2184E1E87829798DF838100EA9032800F05F81022800F06281012865
:2008DC0040F06681522020F0CFFC64E127F05CFF69790246A81D1AF055FD8DF838000EAB20
:2008FC0065204E2165E127F04FFF0146687919F0D3FA8DF838000EAB65204F2159E1C34D8A
:20091C000822E88A05F13901ADF83800C14800788DF83A00A88CADF83B00688BADF83D00E9
:20093C000EACE01D27F0ACFA04F10F0005F11C01082227F0A5FA287E5021182223468DF8F1
:20095C004F00652036E1B2480078002800F0018112200AE11FF0A2FE2EE100208DF83800CC
:20097C00E878010606D5A94910F07F0018BF012081F868000EAB652053211AE16520492133
:20099C002A46234620F08EFF39E180208DF863003E78102E52D80DF11809013734464D46A1
:2009BC00002C4DD0384627F089FF25F8020B013C0237F5E780208DF8630027780F2F54D8A8
:2009DC0001340DF1180A3E46002E50D0204627F075FF2AF8020B013E0234F5E7084627F0FE
:2009FC006DFFADF81800687E06A927F041FA0EA921201AF0F9FE8DF8580016AB652021216D
:200A1C0011E0084627F05AFFADF81800687E06A927F02EFA0EA922201AF0E6FE8DF85800B6
:200A3C0016AB65202221012220F03CFFC5E0002840F0B580042008F05DFDB3E080200DE0DB
:200A5C00BBF1100F0CD80EA9002052465B468DE84202039016A8414613F0C0FE8DF8630081
:200A7C000DF1630365200621A3E080200FE00F2D0FD80EA9002002974A465B46CDE900516D
:200A9C0006A9CDE9031016A8414614F0EDFB8DF863000DF16303652020218AE016A90EAD9B
:200ABC002A4618F0A5F904469DF85800F0B1614904EB4400002641F8206001EB800046605E
:200ADC009DF94B00B0F1FF3F03DC05F1130022F0A9F80EAD1421284627F08EF80420214619
:200AFC0014222B4624F060FC8DF8186006AB652024215EE0182027F0E5FE002800F08380C0
:200B1C000446BDF8380000211822234627F046F80546002818BFC825192027F0D3FE0028E9
:200B3C0067D007460130002D4BD01821FF2227F05DF850E0002049218DF8180006AB652049
:200B5C0037E001208DF838000EAB65204A21132230E027F019FE044605F10D0027F0AEFE58
:200B7C000246691D204624F00FFA8DF838000EAB652051211DE0522020F076FB264800211C
:200B9C0004E0522020F070FB23480121017002E0522024F051FA0EAB65204D2109E0012001
:200BBC008DF8380004F0E000202805D10EAB65204021012220F076FE0024204619B0BDE82C
:200BDC00F08F3146082227F05BF907F109002146102227F055F96520252119223B463D703B
:200BFC0020F060FE3846192127F006F8384627F067FE002CE0D02046182126F0FDFF2046B1
:200C1C0027F05EFED8E7C825FFF7E7BB48DD0020340C0020320D0020510E0020DCE800209A
:200C3C000F0E0020980C0020895702005D5C02008946010050A30020D98802002DE9F04F5F
:200C5C0099B081466FF00700DFF8DC880630ADF8520098F80000022814D1DFF8C8080078DC
:200C7C0080B9B9F8080010B11020012101E0302000210AF093FA00208DF81C0007A9522097
:200C9C0020F0F2FA0DF11C0A99F80810D9F8040052460FF0C3FEE8B19DF81E709DF81F4092
:200CBC009DF82050BDF8266027F0D6FA844211D145EA070001280DD826F003004FF6F8753A
:200CDC0080B2A84206D098F80000022808D19DF84D0028B1D32013F04CFF19B0BDE8F08F8A
:200CFC00B9F82800ADF84800B9F83200ADF82A009DF82200D0B1D9F804109DF81D209DF8DC
:200D1C003830012026F070F808B1CF20E3E7DFF81C08C078012809D1B9F8280027F0ACFC70
:200D3C0020B1417901F0E701083141719DF8210068B1BDF82610FF2024F030FE9DF8211067
:200D5C00E0B141F001012C268DF8211017E09DF83900002800F005819DF83D10FF2902D06C
:200D7C00002940F02A81DFF8C807BDF82620C18A8A4240F02B810120222607E0082601F050
:200D9C000300012808BF46F01106012098F800103746022938BF67F07F07B20748BF37467D
:200DBC00002808BF37469DF82200002800F0818017F0400B1ED0012905D8DFF87407807B47
:200DDC00800700F1E780119801780C2900F2E880012241F298438A401A4200F0E180032993
:200DFC0002D140780D2805D007A822F05EFB01283FF473AFDFF83847B9F84410A08C814260
:200E1C000AD199F84620B9F84210B9F8280000230093002307F0FEFE9DF82200F8B1B9F82B
:200E3C004210B9F8280021F05DFD002800F082800646D9F804009DF81D10F2780844417B91
:200E5C008A421EBF00227260F1700130042124F043FB71688842FFF440AF0130706098F8BA
:200E7C00000002283ED2A07B80077FF536AF9DF84D0060B1BDF8280026F0CCF9002800F05E
:200E9C001681D9F80400417801F0DF0141709DF82E00002800F0EE80D9F80400817901393D
:200EBC0081718DF82E1007F07F00090640F0E580E2E0DFF87C06C07A00283FF479AF07F078
:200EDC00220022283FF474AFF8B200F0420042287FF41BAF1198007800F0FE0006287FF401
:200EFC0014AF65E77FF4F9AE94F82600092802D004287FF4F2AEF8B2800600F18980BBF1E3
:200F1C00000F3FF4EAAE11980078033809283FF6E4AEDFE810F057010F010A000A005C01E7
:200F3C000A000A000A000A000B00D6E607A814F0A9FED2E69DF84D0000284ED0042024F034
:200F5C00BBFF00283FF4C9AE01464FF4B2700880B9F828004880DFF8DC0500781DF054FA89
:200F7C00BBE6BDF8260020F0DDFC0238DFF8C015B0FA80F0CA8A4109BDF82600904208BFDE
:200F9C000231002942D09DF81E20002A5AD001F1400759E0119801784A1E0B2AFFF41FAFAE
:200FBC00DFF88C05BDF82620C08A82427FF492AEBDF8280023F0FCF88CE6109A9DF83C0020
:200FDC0020F042F830B101200026DFE690F826000428F8D100260020D8E694F86C000128F6
:200FFC007FF43DAFBBF1000F04D01198007806283FF435AFE81DBDF82A1080B281423FF465
:20101C006CAE07A849461DF0EBFC66E600271BE099F8460027F01CF89DF82E00012840F0DC
:20103C00CA80B9F82800BDF82810814240F0C380BDF8260020F076FC022804BF00208DF85F
:20105C002E00B8E001F1200720F06CFC0138B0FA80F0400947EA00069DF81E0000283FF43C
:20107C0094AE1198007826F011F9012818BF07F07E068AE607F07F000746390702D44FF0CE
:20109C00000B34E0F9B24A0722D4C9069DF8211028D5C1F3820212B1072A18BF013A002A29
:2010BC0008BF074601F0E30040EA820118E0D32013F05FFDDFF880040078002800F0A38027
:2010DC00DFF8781451F82000C0EB001081009CE09DF8210000F0E00100F0E30040EAD1011A
:2010FC008DF82110D9F804004FF4805B017294F82600092801D0042826D1E18ABDF826009B
:20111C0088420AD020F00EFC022806D09DF8210000F0030001287FF4E0AD9DF81E00002848
:20113C0045D01198007803284CD007284FD004287FF4D3AD9DF8380002287FF4CEAD07A914
:20115C00002011F0D3FDC8E5FEB217F0610F47D0F00708D0B9F8281007A814F089FF00287C
:20117C0066D007F09F074FF00008FEB2B80609D599F84600D9F83C2026F06AFF07A815A9FD
:20119C0005F06CFC700640F14B81B9F8281007A80DF1520243460FF0BDFC00286FD080460B
:2011BC0011980078012808BF4BF0100B38E199F8460026F04DFFD9F83C2007A815A905F0CB
:2011DC004DFC8AE507A800210FF030F985E59DF8380004287FF481AD07A817F00DFA7CE521
:2011FC009DF81E0001285AD111980078032849D0052854D1B9F8281007A80DF15202002308
:20121C000FF088FC69E5CD480168CD480268BDF82800904701287FF460ADCA480168BDF857
:20123C0028008847C8480168BDF82800884754E525F002FA9DF82E108046BDF8280019B9E4
:20125C00B9F82810884290D0E18A814204D1B748807801287FF489AFB9F8281007A8424671
:20127C0008F0EAFF002800F0C18030074BF0040BBDF8260048BFE81DADF8520075E74FF01E
:20129C000008CDE0BDF8260025F0C4FF38B1B9F8281007A80DF1520200230FF03BFC9DF809
:2012BC002E0098B322F0B0FD00287FF416AD9DF83900B0B3109A9DF83C009DF83D101FF0DF
:2012DC00C3FE002800F095809DF83D00002800F09A80109927F09EF99DF82430ADF85200C9
:2012FC0011209DF823209DF821104BF0400B002B08BF0920002A18BF0830002918BF0130F8
:20131C00D9F804100A5C013A0A5486E09DF81E0001287FF476AE1198007803283FF4DDACEC
:20133C006FE6BDF826003107ADF8520025D49DF8201011BB9DF81E1001291ED0002118F0A4
:20135C00F1F918B140790138022816D3B9F84410BDF8520021F0C6FA28B1807825F09CFB5F
:20137C000138072809D3BDF8280025F053FF002800F0D18004208DF820004020BDF826104C
:20139C000AF11D0200EAC7049DF82000234617F0FDFE38B1D9F804004BF0200B017801F0B4
:2013BC003F0101709DF8390048B1BDF826100AF1200020F0C7FF4BF0400BADF852009DF8AB
:2013DC001E00012806D0BDF82810BDF82600002214F0AAF9BDF82810BDF82600224611F012
:2013FC00F3FE002818BF4BF0200B16E007F0DF07B9E6BDF82610BDF828000B22002319F0E8
:20141C004FFFFFF76ABCBDF82600ADF8520027F033F9002808BF4BF0400B25F00DF98046DB
:20143C00A81DBDF8521080B20E1A484818BF4646007801282BD1E81DB9F8321080B28142DD
:20145C0025D0B9F82810814221D0681CBDF8262080B282421BD2BDF82800814217D027F0DE
:20147C000BF9A0B101790139012910D8408801218DF85410ADF8600015AD28461DF0F6FE2C
:20149C0028B1281D1CF0E4FE08B121F02DF878B2B0F1FF3F3FF721AC002E3FF41EACB9F84D
:2014BC00080027F00FFA00283FF417ACB9F80820D9F80410054626F0E3FC9DF81E100020E9
:2014DC0099F80830B9F8282016908DF85410BDF8521015ACCDE9006BCDE90204284610F07C
:2014FC005DFC20B1284627F0EBF9FFF7F6BB0F48407800283FF4F1AB00208DF81860ADF8CE
:20151C001900DDF826004FEA3040059005A826F03BFBFFF7E2BBBDF82610BDF828000222E5
:20153C006CE700BF510E0020340C0020F80B002048DD0020DEE80020430E0020309E02000F
:20155C009C090020A4090020A00900204F0E00202DE9F0438DB0054680780224252800F269
:20157C007380DFE810F02600A100C100D400E700F5000301B602B6021C012D01B602B6022E
:20159C00B602B602B60245014A01B602B602530157016001B602B602B602B602B602B602A9
:2015BC00B602B602B6026A016D017001730177017E01DFF8D47500240E258DF80440387842
:2015DC00012807D801A81CF023FA04469DF8040005EB4005EEB2304627F074F9002800F04B
:2015FC0087824FF000080546431C0021082280F80080012026F0D2FA26F034FE6872000A63
:20161C000721A872DFF88405E972007828733878012800F262829DF80420002A6A7300F03F
:20163C005E8205F10E0000212346914280F0578213F8022B013100F8022B13F8012C00F845
:20165C00012C9DF80420F0E7A0F140010D291CD8DFE811F00E000F013F023F021D012D0101
:20167C003F023F02390144014F0164013F02730101ACE91C0822201D26F002FC204619F047
:20169C002BFFBDF806004021EDE0632800F06C81642800F07981E02840F01B8200244720DD
:2016BC00E0210022002312E2202027F00BF9002800F0C4812021FF22044626F097FA631C4A
:2016DC0001200021082226F069FA0546002818BF012501AB84200021042226F05FFA00286B
:2016FC0000F00882023509E2E81C27F0E7F8ADF80400832027F00CF8014601AA832026F026
:20171C00CBFE8DF828000AAB6720022193E1E81C042123F0E1FE0190842026F0F9FF0146BF
:20173C0001AA842026F0B8FE8DF828000AAB6720032180E1612026F0EBFF0146EA1C6120B5
:20175C0026F0AAFE8DF8040001AB6720042172E1622026F0DDFF0146EA1C622026F09CFE88
:20177C008DF8040001AB6720052164E100208DF80400E81C27F0A2F86A7900F4F851002A7E
:20179C0000F04C81B1F5A06F04D04FF6FF71884240F04E81DFF8EC034FF0FF3147E127F0F5
:2017BC0059F8044626F022FDD949604301ACB0FBF1F1204626F0F4FF672009210422ABE06D
:2017DC00DFF8B4632D79306840B901AC204626F01CFC012021460DF0EDFF3060052D00F064
:2017FC006A81002D00F06A81642121F06FFA67E115F8032B672010216EE0E87821F046FBA0
:20181C008DF8040001AB6720112114E100246720142102E0002467201521ADF808400194A4
:20183C0001AB062253E100246720162109228DF80C40CDE9014401AB49E1F52020210BE094
:20185C00F520212108E0F520222105E04FF6F570232108E0F52024218DF8040001AB672004
:20187C00E9E0F5202521ADF828000AAB67200222E2E0E81C27F022F8ADF8060001AC204646
:20189C0016F076FE231D672041210822D4E0E81C0AA925F04DFC00288DF8040000F0D080A5
:2018BC0001A81821FF22013026F0A0F9F5E0E81C0AA925F03DFC00288DF8040000F0F2803C
:2018DC004FF0FF30F0E015F8030F697821F0E2F928806720482102222B46ADE0E87823F095
:2018FC00F5FE01AC0146204618F0DCF86720492111E0EC1C204625F02DF9002818BF2046B3
:20191C00B5F80B1018F0F2FC01AC0146204618F0C9F867204A21242223468DE001ACE91C0A
:20193C000822204626F0ACFA204626F05BF88DF828000AAB67204B217DE04FF0FF3095F8C3
:20195C000380691D0190ADF81000CDE902004FF6FE70ADF80600287903288DF8300020D194
:20197C000AA826F06BFF21E00024E91C08228DF8284001AD284626F083FA28461CF068FC4B
:20199C000AAB67206321A1E0B5F80B006A7B0024E91C8DF8044009F071FD01AB672064213C
:2019BC0094E0084626F08AFFADF82800AF7B002F00F0DD807E0095F80D90304626F082FF82
:2019DC00002800F0D48005F10F013246044626F057FA00940AA940464A463B460CF038FC42
:2019FC00002800F0BA80837801784278057946798DF806308DF804108DF80520C3788DF850
:201A1C0009608DF808508DF8073001A98B1D811D40794200184626F033FAA5E0B1F5A06FE2
:201A3C0003D04FF6FF71884202D156480021016001AB6720062101221FF034FF002448E03A
:201A5C00182026F03FFF40B3BDF828100446009006200022182323F091FCB8B9BDF8285063
:201A7C0001AE21461022701C26F00AFA444F05EB450506F1110057F8251026F091FE07EB6C
:201A9C008500416806F1150026F08AFE2046182126F0B2F8204626F013FF01AB67204421CD
:201ABC001922C9E7BDF82800ADF8050001AB672045210322C0E7314901220A7020F011FB00
:201ADC00002467200A218DF8044001AB01221FF0E9FE20460DB0BDE8F08385F80D806720BA
:201AFC00002132462B461FF0DDFE284626F0E8FE7CBBA3E7019800BAC4F809000AAB83203B
:201B1C000021022226F04AF820B1043506E000BF40420F00BDF82800A4F80D0004F10F033F
:201B3C0061200021012226F039F8002818BF083504F1100362200021102226F02FF80028FF
:201B5C0018BF1035234625706720012120221FF0A9FE204626F0B4FE70E74FF6FF70ADF8D0
:201B7C0008006FF480300190204626F0A9FE01AB67204D210E225FE774E800200C0E0020AD
:201B9C00A8E3002054E80020340C0020320D00202DE9F04F85B084780226362C00F2D2820D
:201BBC000546DFE814F077017F01750087017B00CF02CF02840037004C008F00A200B000F9
:201BDC00CF02B8009B01CF02CF02A501B801C601CF02CF02CF02CF02CF02CF02CF0237000E
:201BFC004C00CF02CF02CF02CF02CF02CF02CF02CF02CF02CF02CF02CF02CF02CF02CF023E
:201C1C00CF02CF02CF02C000EE00D60102015B005B00E60126F0ACFD242840F0B58102ABF2
:201C3C00352000210422002425F0B8FF002800F01282012002228DF81000002012E2002042
:201C5C008DF8100026F094FD0646092C40F0F88095F8059095F806800720FAE0DFF81C7565
:201C7C0001208DF81000386880B1406A70B102A926F087FD0546342C40F03C82284626F094
:201C9C001DFE002800F03582042052E2032050E2DFF8F834612002210A2250E202ACE220DC
:201CBC00214623F0C9F961200421082295E126F05FFD0446681D26F001FE242C40F094819B
:201CDC0000200BE2E878032800F2A481281D26F0F5FD0246E878DFF8AC1431F81010DFF88D
:201CFC00A804007826F059FD95E1E878032800F29681DFF8901431F81010DFF88C0400788B
:201D1C001BF09AFF8CE126F07BFCADF8080002AB61200C210BE1002661200E2101228DF897
:201D3C00086002AB94E1DFF8546401208DF810003068002800F034810069002800F0308121
:201D5C0002A926F01EFD042123F0C6FB002800F0FD81044626F0B6FD002800F024812146C5
:201D7C00054625F049FF3068BDF80C1022462B4606690298B0478DF81000284626F0A0FDA7
:201D9C0011E1DFF8F8432068002800F010818069002800F00C8102A926F0F3FC2068BDF877
:201DBC000C1082690298904702E1DFF8D093D9F80000002800F00281C069002800F0FE8047
:201DDC0002A926F0DEFC05469DF808000024012809D1BDF80A0030B9BDF80C006938032808
:201DFC0038BF01246400284626F068FDAF788046F72F28BF6FF0080726F0F3FB002800F0DA
:201E1C00A7810546ACB9D9F80000BDF80C10AA1CFBB2C469029800924246A047044640B9AE
:201E3C0000246120332132462B466F702C701FF039FD284626F044FD002C40F0C08080E122
:201E5C00681D26F03BFD8146E81D26F037FD8046092002AF242E18BF2F1808BF35263046D5
:201E7C0009EB080526F054FC854201D9022060E1B9F1000F04D1304641463A4621F0DEFAE7
:201E9C00304641463A4626F007FB002800F0F0800A204EE1E878012802D0002840F051812B
:201EBC0026F056F840F259600121ADF8080002AB61203CE00120EC1C8DF80800E22021467F
:201EDC001FF0D2F930B901200821224626F0E4FA8DF8080002AB612003212FE1E878291DE8
:201EFC00012800F0E980002840F0ED80E020E7E026F03EFC0446681D26F0E0FC242C0FBF89
:201F1C0000200146204626F0ADFB8DF8080002AB6120122112E126F02BFC24280CBF0020C5
:201F3C0026F0F6FBADF8080002AB61201321022205E1E8788DF8080091488068D0F830249B
:201F5C0002A9E02090478DF8100004AB61201421F4E08A4C2068C0B3806AB0B302A926F036
:201F7C0010FC2068BDF80C10826A0298904701462CE0824C206890B3C06880B326F0F8FB33
:201F9C002168C96888472BE080466938002680B2032838BF0126681D082C45D1057846E017
:201FBC0003208DF8100004AB61203021C6E003208DF8100004AB61203121BFE00324002600
:201FDC008DF80840612033213EE0002104AC204626F0E6FB6120322104222346AFE00320E2
:201FFC0026F0EBFA3621A9E005F10806ED790146A8426FD92046002226F048FA09288DF871
:20201C0008006DD1002D6BD020462946324626F043FA65E0022026F0D0FA0A218EE0022054
:20203C0026F0CBFA0B2189E026F048FC0546404626F06EFB0227A84288BF7700FFB10026C3
:20205C008DF80870612021468DF8096002AB02221FF028FC76E002988DF810400422ADF8FD
:20207C00120002208DF8110004AB6120082166E0012E60D1E22039461FF0F6F859E0471B62
:20209C00B8B2F72828BFF72726F0ABFA002861D01FFA87FB00F1020982464846594625F0E1
:2020BC00ABFD404629465A464B4625F077FD0546002851D00A275AE00878022814D25220AC
:2020DC001FF0D2F800E002208DF8080002AB61200F2133E02046324626F0D8F98DF80800B9
:2020FC0002AB6120072129E002A9522022F0A4FFECE702359DF8080015F8016B012810D169
:20211C00BDF80A0068B9BDF80C8031462A46404621F094F9B8F1010F03D1E22029461FF06A
:20213C00A3F83868BDF80C1032462B46476A0298B8478DF8100004AB6120214601221FF0E6
:20215C00B1FB0026304605B0BDE8F08F052028E7102434E7102772E78AF801700027612094
:20217C002146324653468AF800701FF09BFB504626F0A6FB002D7FF462AFE2E7CC0D002074
:20219C000C01002020A30200DCE80020BCA202002DE9F04FA7B047F66014002ACFF6FE742F
:2021BC0000F041829846002724AE169150F82750254446F827500137032FF7D1D2E9020EF8
:2021DC00D8F810501469D8F808601168A5FB003CD8F800701E93A6FB043A814620461D93FC
:2021FC00A1FB05341F941B93A7FB0034229123940446A1FB060111911890A7FB09011790C3
:20221C0050691C93334613911A9003FB00AAD8F80C101E9820977746CDF834E005FB0ECC02
:20223C00D8F814E02195850A01FB04AB084609911D9907964E460EFB09C9890A45EA895584
:20225C0041EA8B51691AA24619941291229C1199CDE90AE604FB00111F98556804FB0E0EF3
:20227C00209A139805FB031102FB0700D8F804702C460C95189B179D07FB060C4FEA932304
:20229C004FEA95254FEAA92643EA815345EA8C5566EBAB20CDF85090884610910F90B3EBA9
:2022BC000509219B23981A9904FB03E602FB01031B981C9A4FEA902507FB0A31089745EA7F
:2022DC008650354604964FEA92264FEAA827169B46EA815667EBAC22CDF854B00E92B6EB1C
:2022FC00000BD3E900E2129E1F69A6FB0E4A139206FB02AA5A690F9ECDF800C0986803940A
:20231C00A9FB074C119206FB0EAA09FB02C6DA680294ABFB008412920E9B0BFB02444FEAAE
:20233C00A12262EBA522CDF88CE0CDF8048003FB076E02FB00438046DDE90220059114180D
:20235C0001984EEB0A020019039042EB0300DDE91D320290D41ADDE91420009962EB000032
:20237C00DDE917321E901098D31A88411D90DDE91B10DDF898E0421ADDE924C0CDF83CE054
:20239C00A4FB0C161B91A3FB0E191C914FEAEC71189104FB01644FEAEE71179103FB0191CF
:2023BC001E9BCDF840C003FB0C441D9BA2FB00BA03FB0E1C4FEAE071169102FB01A1DDE968
:2023DC0004320E9062EB030303FB00111B98039A1BEB00031C986141C018029B4FEA1252EA
:2023FC0041EB0C0142EA03321B151592149325F0F3FBDDF884E04646CDF81880A8FB0EB221
:20241C00DDF81C80239D0492A7FB0829209C0592A5FB0E321E931C92A7FB04321B92A5FB4F
:20243C00082C1D930392C246A6FB0423A046099C1F97CDE9013207FB049205FB04C7119CFD
:20245C00DDF8209004FB0A2C139A019D02FB0A73DDF828A00793049B06FB095506FB0A376A
:20247C00059BBBEB030B129B03FB0E7E03FB08536EEB0C060996DDE90256079FB6EB0508E0
:20249C0067EB03030793DDE91D53DDF840C0ED1AABFB0C73CDE903730F9BDDF838E0A8FB91
:2024BC000376CDE91D1023981C9901960597A5FB0E67029700FB0A101B991F9F009607FB34
:2024DC000911219F079E02FB0700209A04FB0211189A049C61EB00000BFB0247179A019C56
:2024FC00039908FB0242099C04FB0C7706FB032C169A029B05FB023200FB0E20009A8918A1
:20251C0040EB07020598401842EB0C01DDE9143225F062FBDDF864C0069CDDF82CE0A4FBA3
:20253C000C371F9E0797239F0A93A6FB0E38229A40420893A7FB0C531C904FF00000CDE920
:20255C002053A6FB025388410D9905950993A7FB0E531B9006FB018007FB0131DDF8449044
:20257C00DDF84C80049509FB0E0508FB0E171A990798A4FB02BA04FB01030C98089E04FBCD
:20259C0000AE129C04FB0C3304FB02E40A9ADDF838C0B2EB060E63EB05021292049A0F9D3B
:2025BC00B2EB0B0367EB04020B92209A059FBA1A109FAEFB076A2096A3FB05640894A2FB6E
:2025DC000C4B0D960A94219E239C04FB0164099E1F9901FB0060199908FB01482299089C4D
:2025FC0009FB0106189817990EFB00A003FB0141129B03FB07000B9B0A9F03FB0511169BA5
:20261C0002FB03B266EB080303FB0C22209BDB1942410D98C0185141DDE9143225F0DCFA2C
:20263C00CDE9191015E000682044C217920742EA9007D1E900238007394625F0CDFACDE934
:20265C001D1000201C9000201B9000201A900020199040F6A430C2F20000DDF868800C3050
:20267C0000214FF000091F903098209100EB010ADAE90CE01C99DAE904C71E9CAEFB01253C
:20269C00CDE921521D9D2390ACFB04300CFB0500DDF8C0C007FB04001CF80950DAE9146B97
:2026BC00A5F11407C5F13404FB4000FA04F4234340FA07F7343D58BFC717002D58BF40FAB0
:2026DC0005F31B98219CCC440EFB004523989CF8044000FB01552299A4F1140021FA00FEB7
:2026FC00C4F1340105FA01F141EA0E0145FA00F0343C58BFE817002C58BF45FA04F1C9189C
:20271C00199BA6FB08A206FB03229CF808300BFB08227841A3F11407C3F134052AFA07F606
:20273C0002FA05F52E4342FA07F5343B58BFD517002B58BF42FA03F68F1940EB0503B9F170
:20275C00030F0BD0B80A1F9940EA835041F804091F91209909F10109083185E7B80B40EAB4
:20277C00834000F1004040F6A43100F1D460C2F20001086027B0BDE8F08F70472DE9F04FF5
:20279C008DB08B46480714D45FEA0B4045D45FEACB4000F195815FEA0B6000F1BD815FEAA4
:2027BC008B7000F1D0815FEA0B5000F1EE810020AFE1DFF814050178062900F2A881DFE892
:2027DC0011F007008F01A601A6019401A6019B01DFF80055DFF8F4142A7891F82B30022A62
:2027FC0002D19E0600F193815E0700F198819B0740F18D810423037091F82C30DB0700F0A0
:20281C00868191F82E30002B00F04B8224F0FCF90420012102F046FA50E2DFF8BC04DFF8A5
:20283C00B054DFF8A494DFF8B874DFF8A044DFF8B4A448F202080088019028781BF02AFA50
:20285C00002800F03A8106460078D3282DD1F089404540F019813878002800F0158199F815
:20287C000000012840F0108125F072FA002840F00B817088002840F00781A24602AC12214C
:20289C00204625F0B9F925F057FE3046214617F077FCBDF81400B0F5285FC0F08C8001205C
:2028BC0002211EF0ABF854462CE099F80010884219D1012836D0032840F0E680DFF814044E
:2028DC0000780138012800F2DF80B078012853D0002840F0D9807078002800F0BE8000202E
:2028FC001DF03CFAD0E00A280FD194F82B00BA46B71C3071A16909B138468847384623F0EA
:20291C006BFE5746DFF8DCA3BEE0092840F0BC80DFF8C0030078002840F0B680A168B01C8F
:20293C008847B1E0DFF8AC0300780138012800F2AB80707860B194F8330094F834100130E5
:20295C0084F83300C0B2884202D90120002199E099F80100032857D002286ED0012840F035
:20297C0093803878002800F0888025F0F1F9002800F08E80012081E07078002872D025F04A
:20299C0071FC4FF6FE71884203D1BAF81600884207D0AAF81610ADF82010532008A91EF024
:2029BC0063FC1DF057FB23F077FE00208AF826001CF0BCFA68E0CC48006807A908AA16F0FF
:2029DC0017FA074601985446DFF818A3874212D29DF8300010B1FD208DF830000420394610
:2029FC00142208AB22F0E0FCC04907EB470001EB8000012141720020012184F83200012050
:202A1C0002F050F9B64F3FE0A24608ACAB20002122461BF0F1FB042002945446DFF8C4A2C3
:202A3C008DF80C0002A80EF09DFE25F085FD28784FF4805141F288321CE0012020714FF47D
:202A5C008060ADF8200008A818F0FEF825F074FDA2484FF4805102680BE00FF03BFC60692F
:202A7C0090B9A5E702204FF4805140F6B83289F80200287825F091FE06E0002084F8320094
:202A9C000120012102F00EF9304624F09FF8D4E694F8350020B1E0690028F5D08047F3E79A
:202ABC000020002102220023ADF8200002208DF8280008A824F0FAF9B7E78BF4004028E0C2
:202ADC00844800780138012859D87F48017803294DD0012953D1417800201DF08FFF4EE08A
:202AFC00012001211DF08AFF11E024F08DF80420012102F0D7F80AE00021322201707348C5
:202B1C0080F82A1072480421007825F046FE8BF004000DB0BDE8F08F8BF08000F9E70522D5
:202B3C00027091F82C2092072CD591F82E204ABB052202600120487000201BF01BFA0220F8
:202B5C0023F0ECFAE3E763480078013801280BD80020CDE9080008A812F0D6FA20B15C4859
:202B7C00022100781BF0C4F88BF00200D1E78178022904D10121817000201DF01BFF8BF4D0
:202B9C008050C6E705200021B3E752480078002840F08480DFF834A1DAF80C50002D77D000
:202BBC0002A80130019008AC261D002D6DD0A87A18B10138A872000646D19AF83180B8F1E5
:202BDC00000F11D00020A91C08228DF82000304625F056F9204618F07FFC28B12A88BDF832
:202BFC002200314622F0D0F9AF1C0DF11F012246384616F0FDF88146384607A921F00FFF67
:202C1C00B8F1000F05D09DF8300040F0020002281CD1DAF80800A0B101983946082225F07B
:202C3C002FF9022000220C238DF80800BDF81C00ADF812002648007802A9009109211FF06D
:202C5C00CCFA28461DF064F8ED68AEE7384622F082FC9DF81F000128DBD12046142124F08B
:202C7C00CBFF224A09EB49000021234642F8201002EB8000142241604172FF2049468DF8A7
:202C9C003000042022F090FBC3E7DAF80C0028B90F484FF4006100781AF0CEFF8BF4006095
:202CBC0037E7013A012A09D8032202600120487001201BF05FF9012023F030FA2878002889
:202CDC007FF425AF04205EE758E80020E8070020E5E80020340C00206AA30200D40D00205C
:202CFC00260E002048DD002030E8002050A300202DE9F04F89B020F0DDFADFF8EC148122E5
:202D1C00DFF8F084DFF8F0A4DFF8FC74DFF8F0E40A70DFF8D8140860DFF8D404FF2101700A
:202D3C000020DFF8E014A8F800008AF80000DFF8CC040968007891F808B04FF6FE718EF85F
:202D5C00000059448AB2B968D1F80031DB899A421BD80422DFF8B844A8F80020DFF8AC24D0
:202D7C00126893681D0ACEF80C30C3F30159AEF804501D0E2570D1F8B850B9F1020F2E789D
:202D9C000CBF002EB9F1030F10D124F0CFFB25F06FFDDFF8781400240A6813681C711268A7
:202DBC000A6025F06DFD09B0BDE8F08FC3F30F2505F007050EB1002DE7D0DFF858C4042D7F
:202DDC009CF800C008BFBCF1000FDED036B1DFF848643678862E01D1022DD6D19D0216D455
:202DFC0003F4E063B3F5007F08BFBCF1000F1ED0DFF824140978862909D10020754620F0E1
:202E1C0091FADFF81004AE4690F800C02878BCF1000F49D1002847D00128B6D003283CD049
:202E3C00022841D1BEF804004007AED13CE0D1F8D40090F88300022877D0A1460520147BEA
:202E5C00F246A8F8000025F013FD0546DFF8C8030078862866D1B868016C096811B9D0F87F
:202E7C004C05804760B20021002625F071FDB9680A6C12685077086C00688677086C0068B5
:202E9C00C477284625F0FCFCBAF8041099F8000001F010011CF09EF847E0BEF8040000F094
:202EBC00070003287FF471AFBEF8040001073FF56CAF810402D481053FF567AF9EF80E1041
:202EDC00C1F38105012D3FF460AF8E09012E3FF45CAFB9F1010F11D840F0020101F0070159
:202EFC0003290BD155EA06013FF44FAF35B9B968D1F8AC10097800293FF447AF4FF6FB711F
:202F1C00B9F1020F594413D1C54A535D925D02EB030945EA0602430615D4002A18BF09F14E
:202F3C00020914E0284625F0ABFC24F09FF82EE7BA4A535D925D02EB030946B1420648BFAA
:202F5C00A9F1020903E0002A08BF4FF00209C0F300205FFA89FB8BB2ABEB00028EF8010086
:202F7C009A423FF712AF0844B968A0EB0B00AEF806007430D1F8501280B28847A0490028D2
:202F9C0088603FF402AF7421CDE901B90396AB4624F032FE9A4F0020B8709E48007820B90E
:202FBC00387900F020008AF8000078789AF80010964E4FF000092546002993492CD0002860
:202FDC004FF0000029D1B88800F00700032807D0012821D18868D0F8D40090F88200D8B129
:202FFC00C8684069007818B124F05CFCFE280DD085488068D0F84C02804738B982488068F7
:20301C00D0F844028047002800F0EA807C4F0120B8707E4E254600E00020BC6804F1740164
:20303C0084F83AB06160A1657978BB88FA880029A381039B228184F830302B7808BF9946DE
:20305C0097F80EB084F84990A4F85C20FF22B8F80030A273CBF301195D1A797B029FA8F800
:20307C00005001F0780160F3820101EB09002074380600F0AD80306804AE019A10FA85F05C
:20309C0000F10801304625F0A9FC55FA87F0CBF38105A8F80000207C00F04007E5B3B9F12B
:2030BC00020F00D13FB9BDF810000236A4F84400A4F8420002E0B4F8440004AEDFF864811F
:2030DC00B8F80E10884204D04FF6FF71884240F08280032D12D104F13200314625F0AEFB48
:2030FC00474C08F10301A068323023F0E1F94649002870D094F80EB008360FE036F8020B24
:20311C00B8F80C108842608606D04FF6FF713C4C88423D495FD101E03B49394C0020B0EBDF
:20313C009B1F22D04FEA9B10B9F1020F08D157EA05010DD136F8021BA268A2F8421007E002
:20315C00A1680A7C52065CBF36F8022BA1F84220032806D1A0683146283025F06FFB284C2F
:20317C0002E03088A16808852749A0888968B9F1010F11D8D1F8AC2012786AB140F0020269
:20319C0002F00702032A23D135B9264AA368D289B3F8423093421ED100F00700032806D05A
:2031BC00012815D1D1F8D40090F8820080B1A068D1F848128847124E50B90020F17BB070FD
:2031DC00B07BC1F3011100F078000844B168087408F01CFCDBE515F0CAF918F0E5FBD6E55E
:2031FC00074FB87815E700BFF2E8002084E80020F7E80020CEE40020F5E80020F4E8002022
:20321C00440B0020C4E800200C0100201CE8002005E9002004E90020FAE800200CA3020038
:20323C0008A302003CE700202DE9F04F9BB0DFF808650546DFF8047530780328387040F058
:20325C004D810020002118220823307038700CAC204624F0B3F92046002122F0D1F8DFF87F
:20327C00E0B4B8603A21584624F0C6FC4FF0FF30ABF81400CBF81000CBF80C0021F0D4FD0E
:20329C00002029461DF0EAF807F11001F86025F066FAD7E90502DFF8AC54B0FBF2F1C9B217
:2032BC00032928BF03218BF800102970B2F5005F40F01281B0EB413FC0F00E81F8680028E4
:2032DC0000F00A814FF40050DFF880A44FF00008FF22ABF80600FF208BF803208BF80580EB
:2032FC0004900020079000200A900020089000200690002005900020099000200B90FF20F7
:20331C000190FF200390FF200290CCB2A04580F0E8805FFA88F600211AAA0423304624F0F5
:20333C007FFD3046002119AAD0473046012118AAD0473046022117AAD0471A996FF06F0021
:20335C0050FA81F2C8B20E2A06D8012303FA02F245F201131A4203D1A0F1FE02022A04D2E1
:20337C0042F28352B2EB914F1AD0304613F0F2FD0028387040F0F080304600211AAA042367
:20339C0024F04EFD3046002119AAD0473046012118AAD0473046022117AAD0471A99C8B232
:2033BC0008EB48020BEB8209C1F30142090A4C46FE2804F8160F61709DF86610E270A17011
:2033DC0001D3102105E0BDF864104FF6FF72914223D0A9F81C109DF86210702889F81A102B
:2033FC00BDF86010A9F81E109DF85E1089F81B10BDF85C10A9F820102CD078282ED07C28DE
:20341C0030D07E2834D0FE2839D0FF283DD10798CDF80880013007903AE012A81FF0E2FC0D
:20343C00304600214FF088524FF400534FF0885B4FF4005724F0F4FC4FF6FC724FF088539D
:20345C0057B3043F07EA020000F1885BC058411CF6D024E009980130099019E005980130CB
:20347C00059015E00698CDF80C80013006900FE00898013008901FFA88F0019008E00A98EC
:20349C00CDF8108001300A9002E00B9801300B90297808F1010838E7DBF8000000270121C1
:2034BC000126CAB2042A06D8C2B2FF2A18BF0E460131000AF5E7CBF80000A548129900689E
:2034DC004268A448904757FA86F09C4FDFF870B2A9F81C0020787EE7012030701BB0BDE8CD
:2034FC00F08F0B9800060BD10A98C0B2012807D80998C0B2012803D80898C0B201280FD956
:20351C009148042200240270CAB2E0B290420ED213F020FD39780134084329783870F3E7C6
:20353C00079BD8B2A04219D187480022027000208BF803008BF80100481E7E218BF8020060
:20355C00BBF81C00ABF80600002020F01DF99BF80200FE2120F018F93878BFE709980006BF
:20357C0024D00A98049A000603D1029A180600F08380754802210126D5B28BF802200170D0
:20359C0016FA82F0B0FBF4F101FB14008BF80100284613F0DFFC38702846FE2120F0F4F8EC
:2035BC008BF80560002000F0D7F8D5E70A98049A000621D0644801218BF80220017011FA46
:2035DC0082F0039AB0FBF4F101FB140091B2FF298BF801001FD10199FF2919BF8BF8031011
:2035FC0001EB41008BF8030000EB40000BEB8000808BABF80600AFE7DDE9052010430006CD
:20361C003FF47EAF21F0E4FBA04280F084804E48032101703DE048008BF8032010FA82F036
:20363C000BEB8000818B1829ABF8061094D30739D0B212AA89B215F0A1FC9DF85300400701
:20365C00B0D53F49BDF85620002300930323C878C988891A12AA073989B206F081FF002831
:20367C007FF47AAFBDF8541000293FF475AF9DF858001CF085F96FE721F0AAFB0621A0426D
:20369C00314838BF03210329017002D0062952D062E721F09DFB04468BF80C0000EB4000C4
:2036BC000BEB8000408BABF80D000CF0ADFB29782044B0FBF1F202FB11008BF80200013002
:2036DC00C2B2B2FBF1F202FB11008BF801007C2020F074F8FF2812D17E2020F06FF8FF28DA
:2036FC000DD1FF2020F06AF8FF2808D1782020F065F801469BF80100FF2918BF0846C1B29F
:20371C008BF80300490051FA80F00BEB8000808BABF806001BE70798000609D0DFF820B0B2
:20373C00FE219BF8020020F02FF82C78029A41E7054806210170FEE7020E0020D800002028
:20375C0090E10020DDE80020E9E8002035800200D8010010004003402DE9F04F9DB00446D7
:20377C00DFF8D804406818B18047002800F04A82DFF8CCB4DFF8CC240A940DF1380A4FF023
:20379C00F8089BF80000411E002C0B9118BF0121D17392F8029002F11804517800270025D6
:2037BC000D91C0B287421ED2B94517D0FEB2002152460423304624F033FB0E9810F4403FCE
:2037DC0040F0040018BF0135C0B27C2806D130460621F82223F098FA84F800809BF80000B4
:2037FC000C340137DDE7E9B201380022DFF85474884203D17879002800F01C82DDF828A0FA
:20381C000DF154085046BAF1000F08BF10200590002001900D9E0B9D0024280400F0CE81C3
:20383C00F87B08B90120F873F0B200210EAA042324F0F6FA0E98BAF1000F15D010F4403F3E
:20385C0015D04FF400509BF800100134013D3882F87B0138F873012050FA86F0B0FBF1F27E
:20387C0002FB11067E73D8E70021029102E00D960B9502940026C0B2702804D00D987021BF
:20389C00C0B21FF081FF5FFA89F400210EAA0423204624F0C5FA9DF83800FE2803D02046D0
:2038BC00FE211FF071FF20460621FE2223F02CFA4FF400500D9D07F11601BE82DF4E00228D
:2038DC0087F80C900C943882FF20B873E8B232707D73400050FA85F001EB8000B0F806A028
:2038FC0060009BF8004050FA89F001EB8002FE20A7F812A0FF7B114601F8020F32F8060FBF
:20391C0004910990039214A81FF06CFA57FA85F0013890FBF4F101FB140000900998079050
:20393C000020CDF818A0089000200D99CDB20C998D4200F09880C00740F098801FFA8AF0D3
:20395C00162871D93078002840F056815F46AAF1070B28460FAA1FFA8BF4214615F00EFB66
:20397C009DF8460096281CD1BDF84A6006F11000A04216D89DF84700C10701D1800703D49B
:20399C000020ABEB060A2CE0ABEB06009DF8452031462B4684B2204618F00EFC20B3AAF19F
:2039BC00080B1FFA8BF01728C0F02681ABF1160436282846424688BF2024ABEB040BA3B21F
:2039DC001FFA8BF124F02CFA2004EAD018FA84F010F8010C962801D0013CF5E704EB0B0AD7
:2039FC000020964EBB46A0E7F01D83B2079813FA80F1B1F5005F01D90120F2E780B28A46E5
:203A1C00934918440A1A2846214624F009FA089801300890BAF5005F07BF01204FF4005150
:203A3C00514600200791ACE7089810B1854924F039FB0098C0B2854200F0BD800D9901204C
:203A5C0050FA81F09BF80010B0FBF1F202FB11007C490D9000EB400001EB8000B0F81CA0F3
:203A7C00079809905CE70C9D01240BE0089810B1744924F017FBDDF8349000240798CDF891
:203A9C0018A009903078DDF828A0002840F0B48009981021C0F50052103883B20C98C1F23B
:203ABC0000121FF0BBF9317808431499307066480068426865489047624F06987CB19BF881
:203ADC0000002918013991FBF0F202FB10195FFA89F0400050FA89F007EB8000808BB8822F
:203AFC00099903980C9CB7F91220012387F80E9001803982797B204621F080F9B7F914209E
:203B1C00B97B2046022321F079F9388A029CBAF1000FC0F5005004D005998842A4BF012167
:203B3C000191059988424FF07C01B8BF78210C9E30461FF029FE0CF067F90546F87B06210C
:203B5C00FC22401BF873304623F0DEF80499FC20BB7B0870B97815FA84F00D9301449BF873
:203B7C000000B1FBF0F202FB101909F1010187F80290CAB2B2FBF0F202FB1011797003EB68
:203B9C00430107EB8101898B102906D10D990131B1FBF0F202FB10100D900B98401BBAF164
:203BBC00000F0B903FF436AE019880F00100C0077FF430AE02E0DDF800905EE77C201FF0CF
:203BDC00FDFD0446FF2823D17E201FF0F7FD0446FF281DD17C7804EB440007EB8000807DD4
:203BFC00FF2811D09BF80000B9780144013991FBF0F202FB10140BE01348149900684268CA
:203C1C0012489047002215E020467E211FF0BCFDE0B2FE21FC70400050FA84F007EB8000E6
:203C3C00808BF880B8781FF0AFFD00207871388AC0F5005210B21DB0BDE8F08FD80000207D
:203C5C00DDE8002090E10020D801001000400340002000112DE9F84305460C46480414D413
:203C7C00A00023D4A0075DD4600500F18080200500F10781200700F13C81600040F1F780E8
:203C9C0018F09EFE24F08044F1E024F0F1FDDFF824140F6D3FB1D7E90A1202F0E04201F05D
:203CBC000A01891848D024F0EBFD5DE0BC48DFF80874016841F080010160B878012804D1EA
:203CDC0004201FF0C9FD0020B87024F0D1FD0646B448406D016804208847DFF8E4130A6814
:203CFC00904219D12A7EBAB1FA68AAB1DFF8C403806C002800F09880C16840F6030209886D
:203D1C00914206D0C06840F604010088884240F08B8005F1140089E040F6C4120860C5E959
:203D3C00042285E009F036FADFF88803006C002808BF24F002049AE0D7E90A65D7E90A1257
:203D5C00AA43B143C7E90A1224F09AFD56EA0501B86818BF002807D0D7F808C03869B7F9CB
:203D7C00301032462B46E04724F480447FE024F07FFD054622F030F9002800F0B780CD4822
:203D9C00876B002F00F0B280DFF82C830420CD49002288F81800C74822F0F1FA24F0F7FC37
:203DBC00C94824F05FFDC5480068006B8047C8F810000125042088F8025020F0A1FA386987
:203DDC0090F82810C8F80400490703D5436A04210022984701201AF043FBD8F80400457650
:203DFC0011F0F6FBD8F8040081680B461A465B684BB11E88A6F60306072EF7D805FA06F63E
:203E1C0016F0830FF2D0537B03F0F003013353730023FD6853602D88A5F60305012D00F2CB
:203E3C008A80C8F810309FE005F110001DF0EAF8304624F025FD20F07BFA78B12E6A284688
:203E5C006FF4807100224FF00073B0479948806B10B118F0B5FD01E044F00204EE69284600
:203E7C00002100224FF08063B04724F0005434B1984821462830BDE8F84324F039BDBDE84F
:203E9C00F8838D4EB078012804D104201FF0E4FC0020B07020F04CFA38B170686FF48071CC
:203EBC0000224FF00073056AA847306950B183480068006B804732697168801A000BC86074
:203EDC00002030617B4D82490022284622F057FA02203076286C20B17E480221283024F00D
:203EFC0007FD18F06DFD24F40064C0E724F04FFC41E024F0BDFC054622F06EF8A0B1DFF8D5
:203F1C00B88198F8000000070ED498F9000000280AD4684612F038FB08B1009820B1DFF860
:203F3C00B89199F8610048B324F031FC18F048FD24F008049BE7034633F8385FA5B190F816
:203F5C00445090F8456005F0F00580F8445006F0F005013580F8455000255360C563458794
:203F7C00507B00F0F000507358480022C2610160012022F091FC24F4806478E70026012708
:203F9C00602E11D009EB0600817A31B18772407A07FA00F0C0B21FF079FC2036F0E700BF39
:203FBC00CC2108408C010010032088F81800464824F058FC24F0EBFB444F3E4D0022786947
:203FDC0000207861F968F8602846444922F0D7F93A480068006B8047D8F80C10D8F820201E
:203FFC00411A02EB1130B0EB113F38BF4FF0FF3098F82410C8F8200021B1D8F80810B0EBD3
:20401C00C12F20D922F058FCB8B140F60900414621F83C0F002048804A7B02F0F0020132DE
:20403C004A730A7B02F0F0020A734860F8613960B8F83E0010F4406FFAD00020C8F82000BC
:20405C00012088F824001CF09DF92548002101600220002122F020FC02201FF0FDFB102024
:20407C0010F03CFE98F8010020B9D8F80400503024F036FC1B48807810B90D2010F02EFE69
:20409C0098F8250028B1002088F8250005201FF0E3FB002088F818001348C8F81C0002208E
:2040BC00B5F85610B5F85420914208BF072017F09FFE3BE71C060020F40400208C01001032
:2040DC00400D0020D15F020010E0002000100440490701005C050020C0DD002041CA010026
:2040FC000000046074A20200350001002DE9F04F8DB084780226142C00F216820546DFE860
:20411C0014F02900150015004A008800130213021302130213021302130213021302130288
:20413C00130291009F00B200C100CF00012095F80180022C8DF8310040F0C380E878291DB0
:20415C0003288DF82C0040F0E38009A8082223F097FEE2E010208DF82400102024F0B2FBC5
:20417C0098B10446DFF8CC0321466060E81C0FF0B7FB8DF8240028B9204621F0ABFF8DF8DE
:20419C00240010B1204624F09BFB002609AB642000210122B9E101208DF832000020CDF815
:2041BC002A00ADF82E00CDF8260002208DF82C00E81C24F083FBADF824006979A8798DF841
:2041DC002D1023F0EDFE8346E81D24F077FB95F80C908046687AAC7A95F80BA04FEA49077C
:2041FC008DF83100384624F06DFB002800F00681CDE9074806464FF0000805EB0800474538
:20421C006FD00D3024F05AFB26F8080008F10208F3E7E8781FF00AFC8DF8240009AB642044
:20423C0004217DE1E978032900F24681281DDFE811F0040045014901510117F07BFE6AE1DB
:20425C00E81C24F03BFBBA4C6668002E00F0DA806A79002A00F0DA803368A91D184423F081
:20427C000FFE0020CFE0B24EEC1C04212046376821F032F9002F49D0B968814200F09680A6
:20429C003F68F7E7A888ADF82400E87809A922F037FE8DF832000DF13203642013213FE169
:2042BC000026E878ADF8246009A922F0BDF8BDF824000DF1320314210222ADF832006420FA
:2042DC0023E1E81C02218DF82C1024F0F7FAADF824000020AE1DADF82E0068798DF82D00B7
:2042FC0026E0BBF1000F00F0AC80437B0DF131010E30CDE90496CDE9000107985946CDE99E
:20431C00020A09A8089A1CF04AFD9BE00120F5E0084624F0D3FAADF82400287B8DF82D0011
:20433C0005F10D0024F0CAFAADF82E0005F10F06307823F035FE0546701C24F0BFFA81464F
:20435C00F07896F804A096F805B0022C8DF8320008D1B01D24F0B2FA074606F1080007F1D5
:20437C000A0102E0B779F01D39463DB10A3189B2FB2905D36E4E706800286DD0022009E014
:20439C000DF132018DE8030C09A84A463B46294603F0B0F88DF8310008F0E000202840F07A
:2043BC00C2800DF1310364202146B9E0EC1D204624F084FA6D7A002D00F0958005F10209CE
:2043DC008246484624F07EFA002800F096800026457080462A460670786800EB0A0108F15B
:2043FC00020023F04DFD5FFA89F26420122143461DF058FA404624F063FA95E010208DF8AE
:20441C00320024E010208DF8240016E0D6F800C0F38AB28A3169757EB77E06F11800CDE9AD
:20443C0000C0301DCDE9025703F064F88DF82400606824F045FA0020606009AB64201121E7
:20445C006EE002208DF83200304624F039FA0DF132036420032163E007F11C0024F032FAEA
:20447C000028706054D000F11C010C22016000208DF83100706809A9043023F001FD7068EA
:20449C000F214FF47A720561C1769DF83210294DC782A0F8149080F81AB080F819A0017648
:2044BC002878082124F079F900283FF475AF2878082119F01DFC6FE702202CE0007818F023
:2044DC004BFF28E0007823F06BFD18B323F04EFA002020E024F0F2F9A97923F05FFFB0FAF9
:2044FC0080F0400917E03068B84201D138683060384624F0E5F9002000E010200026207006
:20451C00642012210222234666701DF0CBF90BE010203FE701208DF8240009AB6420102120
:20453C0001221DF0BFF9002630460DB0BDE8F08F780C0020DCE800202DE9F04F8FB00C468C
:20455C0008040BD4A00425D4DFF87C53287802282CD1E1077CD1A10641D558E0DFF86003E6
:20457C00007819F097FB90B10178DFF8582305460020602808D0135C08308B42F9D11044A3
:20459C0050F8041C28468847284622F01FFB84F4004591E11CF0E6FA28B10546FCF74EFB45
:2045BC00284622F013FB84F4005585E1A1062ED4012814D8E10600F11381610600F12B81F0
:2045DC00210600F13981E10500F13B81210500F13D81E10400F15081610400F15781A10708
:2045FC0000F1DE80A10500F1F680210700F10D81610500F11581E0034FF0000540F15C817A
:20461C001AF084FEB348C57084F4803554E1AC4F202138781DF006FADFF8B882D8F808106E
:20463C00084324D024F016F9054623F0DFFDD8F8081059B168434FF47A72B0FBF2F0401A0F
:20465C004FEA500538BF6FF000458DB9002570E0A44890F82C100F2906D190F826000228C3
:20467C0002D300201EF012FC84F0010524E1012500200421002221F045FA06464FF0060917
:20469C004FF0FF084FF6FF7A0DF1080B002E4DD0304604210022374621F034FA0646388918
:2046BC00401B38BF002038810004EFD1B87BD0B301280AD17889400707D4386887F80D9056
:2046DC00B721407B1CF006FAE0E739685A468DF80680ADF804A0086AC97F0CF09FF901284C
:2046FC001BD1B87BB97A8DF838000907788A40F08002ADF8362006D540F4C070ADF83600B6
:20471C00387B8DF83A00786910B1007BADF81800584601A9002202F0A1F9387B87F80D906C
:20473C0015F080F9B2E701207873AFE7DFF8A481634F21F0F7FA00200121002221F0E2F9A4
:20475C0018B13878202119F0D3FA002004210022002621F0D7F9C8B306890421002221F0DD
:20477C00D1F928B10289B1B2914228BF1646F4E7A8B2B1B2814224D988BF08462021401BED
:20479C0080B24200387824F008F824F063F8054623F02CFD68434FF47A71B0FBF1F615E06F
:2047BC005148007808B302AD284623F069FF23F047FD4E490B784E490A78294619F0CCFDAE
:2047DC0020E03878202119F093FA0026C8F8086084F0200570E014F0E1FD84F400756BE0E5
:2047FC0007F07AFC84F0100566E03E48418B012024F05EF82878022804D1314801210078D2
:20481C0019F01AFA84F0020556E03248012184F00805817050E00BF083FC84F040054BE012
:20483C00022808BF14F0FEFF2E480121808C24F031F884F480653FE022F034FD84F08005D1
:20485C003AE020F0BBFF84F4807535E01AF0C6FA1E48007801280CD11D48007848B14FF40F
:20487C007A7100FB01F216484FF40061007823F091FF84F400651FE01648017819B1002188
:20489C0001701AF0ABFA84F4805515E01348006880B11149097801290CD18047104800683D
:2048BC0000B1804706484FF480414FF47A72007823F070FF84F4804528460FB0BDE8F08F5B
:2048DC00DEE80020149C0200340C0020390E0020380E0020F80B0020360E00208C090020BB
:2048FC009809002048DD0020110E00203C0E00203E0E00202DE9FE4F8846080426D45FEA01
:20491C00C87004BF0020BDE8FE8FE548056823F0A1FF044623F06AFC60434FF47A714FF608
:20493C00FF72B0FBF1F14FF6FF70002D00F01A812B886C88CB1A9BB29C4240F21C81E31A6E
:20495C0094B2A342B8BF1A46ED68EEE7DFF840A3CDF804809AF8000019F09CF9002800F0C4
:20497C00FC8006460078012840F0EC80DAF8041096F83390D6F814B096F8138021B14846CC
:20499C008847002840F0DE80718896F83100022220F060FE0546002842D0287A297CA0F1CF
:2049BC000108FF2900F0BB80707F4F46C00718BF0027E97C287D0144B94204D8E974FF2193
:2049DC0001FA00F06874A969A87C96F83020896A10FB0710F16A23F053FA287D697CB7FBD4
:2049FC00F0F202FB107001228240D2B20A436A74C8457CD196F83010AB7C13FB0713A9691F
:204A1C008B844FF4FF7303FA00F0C0B21043FF2868746CD1287C19F0F7FCFF2028747FE00A
:204A3C00707FC00700F08E80B07F23F0B9FA002800F0888004461C2023F044FF002800F09D
:204A5C0081801C21054623F0D7F8B07F02A921F0EBFC9DF8090002212875284621F06CFDB7
:204A7C00708896F8312096F8301096F83330A880287DEA71FF2202FA00F068746068007833
:204A9C00A9742874302013FB010080B221F014FA0028A8615DD004461A20B11C2060708C66
:204ABC00A080A01D22F03AFAF27F04F13000B17F96F82830C4F81CB084F81980A062307CC0
:204ADC00E273744A217563750121A075928C2282F28EA285F28C6282B6F81100A4F81700C5
:204AFC009AF8000085F8089019F002F955E723F0B1FE044623F07AFB60434FF47A71B0FBA3
:204B1C00F1F0654928806348097800794843642148436249097800FB0100688000E04F467D
:204B3C00E87C297D6A7C01440139B94218BFC8450CD186F83300708806F11C0186F834209F
:204B5C0015F0E0FE304622F041F803E7FF2AF9D1EFE7284621F000FDF4E7019880F400403E
:204B7C00BDE8FE8F92B282424BD049480121007823F013FE45E0A879022806D1287CFF2863
:204B9C0037D0A86922F022F833E023F063FE044623F02CFB60434FF47A71B0FBF1F03F49C5
:204BBC00288095F83800097888421BD295F83620FF2A06D195F83720013085F8380085F80A
:204BDC00362095F8351095F8394082F0FF0300200126C7B2A7421DD206FA07F71F4214D13B
:204BFC000130F6E7EA8BA87E95F82A10E9231DF06BFD284621F0B0FC25480121007819F06D
:204C1C0077F888F00100BDE8FE8FFBB201441A4385F83620AB8F95F83440C8B204FB103345
:204C3C009EB2A64203D2FF2285F8362002E0FF2A08D12346184A174E1278367972436426CB
:204C5C00724302E095F83A2023466A802A8D0E0606D022F0200244432A852A6C224404E07C
:204C7C0042F020012A6C2985297A85F82E10E9796A6285F82D10D9B269840549496811B102
:204C9C0088470028B8D105F1100004F0ADF8B3E7580C002048DD00202C0E0020320E0020BC
:204CBC00CCC200207FB50138072800F24A810C46DFE810F008002A0052006C0087004701F9
:204CDC00A400C700CA4800780138012800F23981002C00F045810020032100241DF0F2FE6E
:204CFC00C54DC64E0420042132222870307823F054FD0820002106F051FA30784FF48051EB
:204D1C006C7018F099FF7FBD0020002523F050F9BB480121017004208DF80D0074B1B548B0
:204D3C00B34C45852078012803D1072021F004FE2078022802D1062021F0FEFDAE480421DD
:204D5C0032220570AD48007823F027FDA94890F82B1001F0FE01F2E0A5480078013801288D
:204D7C0000F2EF80A54804213222007823F015FD002C00F00F819F4C9F4801210170206919
:204D9C00002800F0EC801EF0EDF9F8E70120002C8DF80D007BD0974800219B4A80F82A10DF
:204DBC00984823F0B9FA924C2078012803D1072021F0C2FD2078022870D1062021F0BCFDD4
:204DDC006CE002208DF80D008A48002C73D000218D4A80F82A108B4823F09EFA002003210A
:204DFC001DF070FE824C2078012803D1072021F0A3FD2078002877D1092073E07C4D002074
:204E1C008DF80D00002C28787BD018B9092021F093FD2878022806D10820002106F0BEF99B
:204E3C00042021F089FD13F045FA73480021C822017070480D2180F82A10704823F03CFC87
:204E5C0078E005208DF80D0069480078022878D1002C00F0C38068480022C178C27001707E
:204E7C0042F20800002106F099F962480D2190F82B2080F82A10C17802F0DF02002980F827
:204E9C002B200CBF04200D2021F056FD59E05848007818B95748022180F82A1056480021D6
:204EBC0032220170554823F007FC524890F82B1001F0FD0143E0082180F82A104C490978FE
:204EDC00012911D890F82E0070B900200DF10A018DF80A0052201CF0C7F922F0DDFD1DF0D5
:204EFC006DFA002021F028FD4348002132220170424823F0E1FB3F4890F82B1001F0FB01B8
:204F1C001DE03C4C022812D194F82E0078B194F82B00002140F0200084F82B0005208DF887
:204F3C000D00082006F03AF90A2021F005FD022084F82A002F4890F82B1001F0EF0180F85F
:204F5C002B102C480022032390F82A008DF80C002A48007803A900910A211DF03EF97FBD29
:204F7C00244C0720254D4FF4805184F82A0001208DF80D00287818F05FFE0020002620F044
:204F9C0021FD2878022141F2883284F82B6023F004FCD6E7174C022000218DF80B1084F88E
:204FBC002A001548017094F82B000DF10B0100F0FD0084F82B0001208DF80D0052201CF057
:204FDC0053F922F069FD1DF0F9F9002021F0B4FC20690028B5D01EF0C5F8F9E705480221C0
:204FFC0080F82A1090F82B1041F02001A7E700BF340C0020E807002058E80020E5E80020C5
:20501C00290E002048DD0020FA0D002092B0DFF8E892D9F8000010B1002180F84510483026
:20503C001FF036FB23F024FC8046072010F0C4F816F014FF10B1B14823F01EFE19F068FACB
:20505C0001AD284622F094FF0427002029468DF8047022F095FFAA4E306022F0B5FB0AAD19
:20507C00284622F04DFE002029468DF8287022F04FFEA44C206022F0B1FB06AD284622F0DD
:20509C004FFE002029468DF8187022F051FE21689D4D286019B99D4823F0EEFD286810B9A1
:2050BC009B4823F0E9FD306810B99A4823F0E4FD1BF038FCD9F800004FF0FF3658B1CDE97E
:2050DC00106610A9082221F02DFE411ED9F8002018BF114600E00021CDE9106621B18E48CC
:2050FC00082222F0CDFE17E0082023F0EBFBD8B305460024052C04D823F082FA285302342E
:20511C00F8E74FF6300029460822E880824822F0B7FE284623F0D4FB10AA0120082123F026
:20513C00B5F9092800D0D8B920F07EFA800712D4CDE91066CDE90E660EAB012000210822A3
:20515C0022F02CFD60B90EA810A9082221F0EAFD002800F0CB80704A0120082123F09CF93F
:20517C006D49E2201CF080F811F0DCFC282023F0A9FB6A4E0028306055D0694F694C07F105
:20519C000C0523F095FA22F013FE3068056007F1100523F08DFA64498968D1F84C138847E4
:2051BC003068456007F1140523F082FA1AF078FF3068856007F1180523F07AFA18F0FAFB5F
:2051DC003068C56007F11C0523F072FA1EF0D8F93068056107F1200523F06AFA1DF066F981
:2051FC003068456107F1240523F062FA1BF0B4FF3068856107F1280523F05AFA22F0D6F81D
:20521C003068C56107F12C0523F052FA1FF0C8F93068056207F1300523F04AFA387022F01F
:20523C00FFFB3068456217F0BFFD404840494FF00009CDF8409001603E480321119010A804
:20525C001FF016F822F066FF404623F019FB16F013FF23F0F8F901201CF0C4FD18F02EFEB3
:20527C0036480078022808D133480078012804D14FF40040012105F091FF294F4FF4804182
:20529C00387823F05BF82E484FF0FF31006823F0EFFCDFF8B08078684FF0FF3123F0E8FC44
:2052BC003068002550F82510096821B9691C092D0D46F7D3EFE722F0D1FC316851F82510A9
:2052DC000C68C1F8009022F029FB58F82520002021469047044622F0C1FC316851F825109C
:2052FC000A6822430A6022F019FBD4E70A480EA9082222F0C5FD33E7CC0D00207C9C02003C
:20531C0040E8002044E8002048E800209A9C0200AD9C0200C09C0200FCE70020BCE80020E5
:20533C0018040020413802000C010020A4090020A1BD0100008D1500510E0020340C0020C0
:20535C0098E80020949F02002DE9F04F89B08A4608040DD45FEACA7040F01C815FEA8A707E
:20537C0000F12A815FEA0A7000F13281002041E1A24F387818F08EFCDFF88892A04C064670
:20539C004FF0000B48F21508002E00F000813078312837D0322848D0D32840F0B280F08961
:2053BC00404572D0382840F0AC80CDF820B0CDE906BB304606A91FF04BF89DF81C100529DC
:2053DC0067D8307B002840F09C809DF81D000138042800F29680069822F072F9002840F0C1
:2053FC009080707C88490DF1180C7870708808809DF81D00214601388DF81D009CE80D00B5
:20541C000DC17EE0B87803287BD899F82E10814822F056F9002874D1FF207D496071708882
:20543C000880B088794908806BE06079FF2814D0002015F057FB0246B9F8701078783346BE
:20545C00CDF800B011F01EFE6079002859D038780821322223F0A1F953E099F818107068D6
:20547C0020FA01F2D2071ABF3144097A002106F1080200231B2B42D020FA03F5ED0702D0E4
:20549C00D55CA9421ED80133F4E7304620F0FAF937E0FF293DD0FE2956D199F872109DF814
:2054BC001E00884202D860BBFF292AD11BF000FD069900201B2859D021FA00F2D20757D18F
:2054DC000130F7E7B9F86E004F49334608804F4802884F48018810200090002011F0D2FDF8
:2054FC000120F870B87840B93C2002214EF66022B880387823F051F9B8780130B87084F84F
:20551C0005B0304621F062FB387818F0C3FB06463AE799F872109DF81E00884203D8002860
:20553C00EFD1FF29EDD11BF0C3FC069838B1D9F82810814203D0C9F8280021F00DFABDF803
:20555C00200021F06FFFDCE7307B0028D9D170882D49802200230880707CCDE900BBCDE982
:20557C0002BBCDE904BB10F035FCCAE71B2000E0C0B299F818108142C3D02749087099F8E6
:20559C000700642100FB01F23878012162E78AF400402FE020491B4C08782076E1201BF09B
:2055BC0063FE21F0D9F90020A4F87000012015F099FA8AF001001DE010488188B1B1013931
:2055DC004EF6602281800078022123F0E6F80FE00B4C607938B12179206822F071F810B9EE
:2055FC006079013860718AF0080003E0002181708AF0020009B0BDE8F08F00BFEC0A002007
:20561C0094E7002048DD0020CEE70020CAE10020CEDE002000F8FF07E1E800202DE9F04FE6
:20563C0085B08846080418D4AA480078012802D85FEAC87155D15FEA88714CD4022807D1DA
:20565C00A5480078012803D15FEA487000F188805FEA087057D400202DE1DFF860A29AF84D
:20567C00000018F017FB002800F023810546807FC8B9688C132816D191486E8800F11C0972
:20569C00002049464F46002818BF071D086850B1014631F8042BB242F4D144683C6023F063
:2056BC000FF92046F3E7A87A05F1020B022840F0E680DFF80C9295F83170BBF8006009F1F1
:2056DC001C000068A0B10188B14202D18178B94242D00430F5E77A480121017088F00200A5
:2056FC00E9E07748406900B1804788F00100E2E0D9F81C40002C57D001206168002955D0F2
:20571C0001300C46F9E77148DFF8B491807BD9F81C60000760D423F09DF8044622F066FD4B
:20573C006B4A60434FF47A71B0FBF1F0D9F818101288411A91427CD3B1FBF2FB0BFB02F298
:20575C00511A08445F49C9F818001FFA8BF00978884288BF8B4641E05A490978C170A5E003
:20577C005F495E4800224FF6FE7300240978023079B130F8025C9D4208D04588013D4580D9
:20579C002D0406BF027020F8023C012401390630EEE734B1494804214FF4FA72007822F0F1
:2057BC00FCFF88F0040086E000240020464980B20988884263D2082023F084F800285ED04E
:2057DC0000210680877041603E490978C170D9F81C1089B3606041E04FF0010B00205FFA57
:2057FC008BF44FF0000A071D002808BF09F11C07A6B1F078A04298BF2046A0EB0B00F07041
:20581C0006D8756830463D6023F05AF82E46EFE7716830460AF1010A0E46E4E75FEA0A40E8
:20583C0007D100200821C9F818002448007818F003FA88F008003EE0C9F81C002348807B88
:20585C0000070BD423F006F8044622F0CFFC60434FF47A71B0FBF1F0C9F818001B48807B7A
:20587C0000070CD59AF8000008211CF0DBF830B91748082102889AF8000022F08BFF2878C1
:20589C00022810D0012811D1297EAA89EB7C05F11C006C696E7E8DE85A0005F1100359464C
:2058BC0004F094FD02E0284615F094F9284621F08DF988F4004005B0BDE8F08FDBE80020E8
:2058DC000C0A0020310E0020F40D002048DD0020F80D0020340C0020510E002050CF00206E
:2058FC000B0E00202DE9FE4F074608680024B0B1D7E9018A0E4622F0BBFF8146D8F8E800C4
:20591C00082888BF0124B068204202D17068204208D003203074484622F0B2FF00242046CE
:20593C00BDE8FE8FD8F8C01069B198F8F8100029EFD006213174D8F8C410C8F8C4604E61DC
:20595C0098F8FC100DE000210522C8E93066C8E93411C8E9361198F8FC10002908BF012276
:20597C00327400220129726109D102204FF4E02188F8FC0098F8FB001EF08AFB70688949C2
:20599C000138884205D804201EF0BAFC06201EF0B7FC02201EF0B4FC98F8F80040B9DAF809
:2059BC003C003168814203D298F8FC0000286CD0D8E9361009B118B900E028B322F080FE91
:2059DC00DAF80000416941F001014161484622F057FF98F8F80008B10124A0E708F16C050D
:2059FC00D8F8EC10284621F0B7FF0028F4D0D8F8C00003210174384609F07EFA28460021F7
:205A1C00002421F0A9FF8AE79AF8040022F032FF654CDAF810100222206991FAA1F1B1FA2B
:205A3C0081F14368D8F8CC004068006898472069DAF8141002224368D8F8CC0091FAA1F19B
:205A5C00B1FA81F14068006898479AF8040022F00BFF9AF8040022F00FFF22F031FE002055
:205A7C00C8F8E000D8F8C0000068B0F5806F01D922F026FE98F8FE000028A1D1DAF80000D4
:205A9C00416841F0020141609AE798F8F90020B1D8F8EC0001307FF48BAF484622F0F0FE69
:205ABC00B2683AB1D8F8E8000221092838BF0121009103E008F1F40200200090746834B1CC
:205ADC00D8F8E8000227092838BF012702E008F1F6040027DAF80000334D416841F002014E
:205AFC004160D6F800B0D946BBF1000F40D0D8F8E800019209284FF0010011D22A68B9F1A6
:205B1C00000F1FD0C0071DD02178DAF800009268904700281EBF3C44A9F101090120EDE75D
:205B3C002A68B9F1000F16D0C00714D02188DAF800009268904700281EBF3C44A9F10109F8
:205B5C000120EDE7DAF80000D26802A99047DDE90120107007E0DAF80000D26802A99047CA
:205B7C00DDE9012010800098ABF1010B0244BBE7D8F8F000DAF80010CA680240102802D149
:205B9C00002AF9D101E0002AF6D0706820F07AFBD8F8C0100020C8F8C400C8F8C000087487
:205BBC001AE700BFFEFFFF0FC40100102DE9F04F87B000F102098246484622F0C1FD01ACCE
:205BDC0006461821204622F017F89AF8017004F10B00494622F032FE02209AF80A108DF876
:205BFC001A006FF00100ADF8180000208DF80C0001F00800890708D480B901254FF0000B93
:205C1C0000244FF00008012115E068B903214FF001084FF0000B002500240CE00221002592
:205C3C004FF0010B002404E0042101244FF0000B00254FF000088448007838430DD083488E
:205C5C0090F8260008280BD1009122F081F8012F0AD148B14FF0C30B69E04FF0C30B01E00A
:205C7C004FF0C20B002464E09EB332790098824218BF022F17D144EA0800012803D1D01E2B
:205C9C00C0B2022807D34BEA0501501E012917D1C1B2012914D830881FF00CFFD0B930881B
:205CBC00ADF8180018E04FF0000B49463B468DF81AB03088ADF8180022F0EEFD012437E0BC
:205CDC00C0B2012802D8308822F004FE484618F0BFFA0026BDF818004FF6FE7188421CD1BA
:205CFC001FF0E0FC10B1BDF818000FE027B1584C20881FF0DFFE30B19AF80A0000F00200A1
:205D1C001DF0FCF800E02088ADF818004FF6FE71884202D14FF0C70B09E09AF80A2049468B
:205D3C003B4622F0B9FD002859D04FF0010B0024009977B1012F11D14A48007870B9002E0A
:205D5C0043D0002001228DF81A0001A813F0EAFB09E001A819F06AFF76B91AE001A83A464B
:205D7C0013F0E0FBAEB17179022F41F04002727104BF41F0600171719AF80A10490603D54F
:205D9C00717941F080017171B17900250131B17100E00125B0FA80F149090C421CD107D140
:205DBC00002C18BF834641F20100594614F025FA15B9484618F04CFABDF818004FF6FE71DA
:205DDC00884218BF22F086FD06E0022001228DF81A0001A813F0A6FB07B0BDE8F08F1D481A
:205DFC00016811B1BDF818008847BDF81800009A494605F043FB0646174818490A680078A1
:205E1C004FF4803122F0C9FC01211548C17036B1022F0DD00099012F0FD110200AE04FF6EE
:205E3C00FE7000244FF0010B0026ADF818007FE7009908207279104370714FF0000B0124D1
:205E5C008DF81AB075E700BF140B002048DD0020EC0D0020A0090020DEE8002058A3020073
:205E7C00F80B0020340C00202DE9F04F8DB0044600209A4616460F46CDE90B00CDE9090076
:205E9C0087488568804610F04DF8262803D010F049F825281BD1308840F60201884218BFF2
:205EBC00B0F5C15F03D1F07B022810D93EE043F6070188420BD196F82400032807D330695A
:205EDC00784940F0806020F0604088422ED100206FB366B3387825FA00F0C00726D030460F
:205EFC00002122F0E9FC7048C4E90176006880B109A800900CA90BAA0AAB304609F01AF917
:205F1C000B980B214FF6FF72502320F0F5FBFF280CD022F0ADFC654F06467878012802D8BC
:205F3C0040B1012070E0304622F0AAFC00200DB0BDE8F08F09F0E2FE5D480DF104090168C2
:205F5C0041F0020101605B48C8F80000484621F0F7FFDFF864B15A494A469BF801009BF852
:205F7C0000500390554828301AF050FB554856494A461AF04BFB484621F002FFDFF84C8178
:205F9C00534A19214B46029540461BF027FB514A08F11C001A214B461BF020FB4E484F4963
:205FBC0022F0A2FB4E484F4922F09EFB4E48006810F4402F06D04D4A07F1280004210023F7
:205FDC001FF0D4FF9BF8020010B10D200FF0F4F808F1400021F05EFB08F1380021F05AFB1B
:205FFC004349002007223876B8843862386181F860200521C7E902103E49F9613870042005
:20601C00002120F049FC78782C4941F8204001307870304622F034FCBAF1000F06D10DF190
:20603C00040A35492022504622F0D8FCDAE90012BAF81000DAE90635002AB2FA82F608BF50
:20605C0040F6C4126261216060832563760926764FF4FA76C4E9036201226276274AC4E970
:20607C000722C4E90923DAF80C0000B12062DAF8140000B16062DAF8080000B1E06104F1D7
:20609C003800C82121F0B8FD04F1500000211FF010FE1B4904F1B80022F026FB204646E7A3
:2060BC00CC2108400F000005900C0020F404002000200940110000E074A202005C050020B4
:2060DC00E96D020018E10020254201001C06002041CA010035AE010054E00020AD5F020037
:2060FC0010E00020956D0200B44F005069F40100C0DD00203500010020A0020037210100B1
:20611C00E18702002DE9F04F8DB00646806A447874B18D4909788C4280F012818B49023022
:20613C0022462AB130F8023B013A21F8023BF8E78748C18A708988422FD183480078A04229
:20615C0040F2FE80B589814A2146284620F092FE284616F0D1F8064682480778BE4204D14E
:20617C004FF6FE7016F0C8F80646BE4280F0E880DFF8F48108EBC6094F4657F8040F08B1A8
:20619C0022F09EFB002C00F0B180600022F09AFB0028386040F0AC80D2E0B27C002A00F0CE
:2061BC00CF806A4F0025AC4205D037F815208A4203D00135F7E7A04600E0A846002113F0E4
:2061DC00B1FA002800F0AD8081464079012840F0A88099F8060010F0180F00F0A280B9F831
:2061FC000210204620F034FFA54202D3002800F098805848CDE90498B6F80C904FF6FE7AE3
:20621C0000780890544800780A90002006960B9052481130099052480430079000200C90B8
:20623C00DDE909564FF0000BF6B135F8117C574518BF4F4502D1013E1C35F5E72046394647
:20625C0020F006FF0028F6D1287801380528F2D80C980BF1010BC007EDD00B985FFA8BF1A6
:20627C00C0B28142E7D356E0DDE907862EB338F8047C574518BF4F4503D1013E08F12408BA
:20629C00F4E72046394620F0E3FE0028F5D198F8050001380528F0D898F80000013802288D
:2062BC00EBD30C980BF1010BC007E6D00B985FFA8BF1C0B28142E0D32DE00B98000628D1CC
:2062DC005FEA0B6025D001205FFA8BF50B90012D4FF001000C90A3D022F092F9C0B2B0FB2D
:2062FC00F5F101FB15000B90012098E7002038601E4989F80140A9F80250097808F83610B5
:20631C00F4B1E8B1114962000DB0BDE8F04F21F0B7BD4FF6FE770498069EDDF81480478017
:20633C000A4FB37CF47CB269B1890125581EB07470895FFA88F68DE8D00003950FF0EAFEA0
:20635C000DB0BDE8F08F00BF7FA3020044E6002048DD00208AA3020078A3020090C500200D
:20637C0080B400207EA30200B0AC00204A0E00202DE9F04F87B005462C200E4622F0A2FA71
:20639C00002844D0778B044621F06CFF0021E1840121874208BF02212170707BA07031695C
:2063BC00081A6060204617F0D1FC3178814F01F00301387B012908BF05206070C0B221F01B
:2063DC00AFFD4FF0FF316077A182217F326908440A44317D3261081A3075E070A069013025
:2063FC0017D0207C032816D8DFE800F002170209062021466082284616F0E8F910B304205F
:20641C0021466082284607F037F905461BE01025CBE0A32517E0A12515E00020B325608208
:20643C00F87A80B997F8410001280CD1A07D4FF6FF7619F033F80025A082B04208BF6FF055
:20645C005E0500E000252078022807D104F1080621F032FA0146304622F0F0F9280640F0C8
:20647C00A180554F3878013801281AD894F8260010B994F82700A0B1A078E178227F08445A
:20649C001044043022F01EFA58B1A178E2780646207F114408446168021D304621F0F0FCCB
:2064BC0000E0002620460DF02DFD054638780138012873D8002E71D0002D6FD00DF108089C
:2064DC0000274FF0010B4FF4D00908F1080A94F8260018B994F8270000285FD0A178E27807
:2064FC00207F114408443146021D606821F0C8FC94F8260020B184F82670C4F8129007E033
:20651C0094F8270020B12D4884F82770C4F8120020460DF0F7FC10B10021054639E0404663
:20653C00142121F069FB608A8DF819B0F0B9A08A40F20311884216D0682817D16068C17B18
:20655C00052929D12A30FF21082221F0CFF818B34FF0FF306946CDE900001948006822F002
:20657C006DF9FC2000E0FF208DF81800504669460022002512F03CFC01469DF8000038B156
:20659C000420142243461EF00FFF0321002500E0032103299BD101E00221FAE716B13046D9
:2065BC0022F08EF9204622F08BF9E8B207B0BDE8F08F00BF48DD0020340C0020000003014D
:2065DC0030E800202DE9FC470546019007788B48C65D8B48F840ADF80260C00740F00C8127
:2065FC000D2F13D1874D0DF10201A868D0F8282453209047BDF802104FF6FD70814214D8F4
:20661C00019C208988B14FF0000A9CE00C2F0ED0072F13D0052F0ED1A878012800F0EC8030
:20663C00287C304400F1240916E0A868BCE06868C08AC0050AD44FF0000A09E0A87848B15E
:20665C00A87D00EBC00006EB800905E04FF0010AB14605E006F11B09ADF802904FF0000A2E
:20667C0048461FF029FC00B30446072F3CD12878207068786070A878A0700028E978E17012
:20669C00D5F8051061604FD0A87D0028207241D0A96900293ED000EBC00004F110068200AB
:2066BC00304621F0EDFBE66037E00C2F40F0A4802C4654F8040F002800F09E8022F0D8F87A
:2066DC00804650488068D0F854132046884748461FF0F2FB0446404622F0D2F8002C00F0A2
:2066FC008B8021F038FF2EE021F035FF052F2AD104F1180561682422284621F0C1FB616983
:20671C00227C04F13C00656021F0BAFB60682430606118E000202072E060A86998B122F0D0
:20673C00CFF80020A8750DE01B2004F110061B2220723046A96921F0A3FBE660A86922F097
:20675C00BFF80020A8613048016819B120468847002846D10D2F2CD10198426811788B0787
:20677C0020D452783F2A1DD8284AC1F38301927C914217D190F83000022813D194F84700D5
:20679C0004F146011DF038F901984FF6FF72418E91421ED14068807902281AD3204618F05D
:2067BC006DFC48B317488068D0F8541301A8884722E00C2F0DD1019840781A2809D060681C
:2067DC0038B1C08AC00704D0207C04F10F011DF013F9BAF1000F04D10D482146007817F04B
:2067FC0013FE0C2F08D1019850F8041F21B105498968D1F85413DAE7BDE8FC8798A10200EF
:20681C0019C206000C010020C80D002048DD0020DEE800202DE9F04F93B004461DF0F4FA51
:20683C0008B11120D6E0207F4FF6FE75C0B187480078810041EA401061882077FF201FF0E3
:20685C00ADF8002190B1E08A05F101094FF0010B40F00400E082207F40F00100207709E07A
:20687C004FF0000B00254FF6FE7909E04FF0000B4FF6FE7976480078022838BF01218D01DB
:20689C00678838461BF04EF808B10020607694F81AA0BAF1000F04D16E4890F800A084F840
:2068BC001AA094F90000C6B2B0F1FF3F07DDE07E40B969480178E1760131017002E006F0E7
:2068DC000306267064490495C87A304304D1207E012804BF00202076DFF8748198F8000091
:2068FC00012833D8887B800730D5BBF1000F1CD0E08A410606D5BAF1010F03D120F00400E3
:20691C00E08222E0A188E07E627DADF822708DF82AA0ADF824108DF82B0006A803F08CFC59
