:10000000003A012071CE00002DDE00002DDE000040
:100010002DDE00002DDE00002DDE00002DDE0000B4
:100020002DDE00002DDE00002DDE00002DDE0000A4
:0C0030002DDE00002DDE0000553B00001E
:100040002DE9F04FADF5077DD0F8009006469B46B0
:1000500015468691484610F035F84FF0000A09EB36
:1000600000084FF0FF310027CDF814A2C14580F001
:10007000C88009F101048DF810A28391CDE981AA0D
:10008000204610F8011D002900F0BB80252908D06A
:1000900001302946306014F8010CD847013401378B
:1000A000EEE73460859781AC3146204600F0AEF82B
:1000B0002046314686AA00F0C5F8306802787A2AD0
:1000C0000ED0682A10D06A2A17D06C2A19D0742A48
:1000D00022D04C2A40F08280819941F080011EE0BC
:1000E000819941F480511AE00146819A11F8013F4B
:1000F000682B75D142F400710BE0819941F40061E5
:100100000DE00146819A11F8013F6C2B6BD142F44E
:1001100080718191811C04E0819941F400518191A9
:10012000411C0A7801F10109732A8DF81022C6F8E2
:1001300000901FD06E2A2AD1819843F66071084042
:10014000202854D0402834D0B0F5005F31D0B0F52D
:10015000007F50D0B0F5006F05D0B0F5805F28D09B
:10016000B0F5807F25D18698FA1750F8041BC1E9B5
:10017000007222E09DF80402400620D4CDF800B0C1
:1001800081A886AA294685AB00F023F91FE00DF16E
:10019000060481A986AA204600F06EF9909B0246CB
:1001A000204629469847411C18BF38448590074689
:1001B0000EE0869850F8041B0F60869007E0CDF89B
:1001C00000B081A886AA294685AB00F09BF8859FE0
:1001D0004FF0FF31781C7FF449AF10E00146A1E7F2
:1001E00042F0200001E042F04000819099E78698BB
:1001F00002C80F80E1E7869802C80F70DDE74FF074
:10020000FF3738460DF5077DBDE8F08F0A68137893
:10021000202B0AD0232B0AD0302B0AD02D2B0AD02A
:100220002B2B18BF7047022306E0042304E00823A9
:1002300002E0102300E0012301320A6002681A4341
:100240000260E3E7FEB50446086816460D460278EC
:100250002A2A11D13068011D31600068B0F1FF3FDA
:10026000606005DC40426060206840F00100206072
:100270002868471C2F6018E001300DF10201303A68
:10028000092A07D8286010F8013C0278013001F8EB
:10029000013BF4E70022471E0A709DF8020020B1DE
:1002A0000DF102000BF0AEF8606038782E2828D1EE
:1002B000781C28607A782A2A08D13068011D3160BC
:1002C0000068A060286801302860FEBDB91C0DF1EF
:1002D0000200303A092A08D829604B1C11F8012C79
:1002E00000F8012B0A781946F3E7002101709DF808
:1002F000020028B10DF102000BF084F8A060FEBDF1
:10030000A160FEBD2DE9FE4F054610680C46011D9B
:10031000116007680C9AE7B3AE6898469146002EC4
:1003200004D438460FF024FE864203D338460FF03B
:100330001FFE0646D5F804B0B2460195B345C8BFC6
:10034000DA46D8F80000CDF808805044C8F800001C
:10035000B3450FDD01980078C0070BD1AAEB060565
:100360004FF00008A84505DA20202146C84708F1CB
:100370000108F7E7DDF808800025B5420FDA57F8E5
:100380002500B0F5807F1AD2C0B22146C84701359A
:10039000F3E70020214603B0BDE8F04F1047B34516
:1003A00015DD01980078C00711D0AAEB06050026DC
:1003B000AE420CDA20202146C8470136F8E74FF05C
:1003C000FF30C8F8000010F0BFF858210160BDE808
:1003D000FE8F2DE9F84F054610680C46011D11608F
:1003E00006680A9ACEB3AF689A469046002F04D4A6
:1003F00030460FF067FE874203D330460FF062FEAF
:100400000746D5F804B0B9460095BB45C8BFD946E4
:10041000DAF800004844CAF80000BB450DDD00983A
:100420000078C00709D1A9EB070A0025554504DA71
:1004300020202146C0470135F8E70025BD4204DAF7
:10044000705D2146C0470135F8E7BB4503DD0098E4
:100450000078C00706D1BDE8F88F00202146BDE82E
:10046000F84F1047A9EB07050026AE42F3DA20202B
:100470002146C0470136F8E72DE9F04F85B0164612
:1004800000278B46D1F8048040F2FD11202204465B
:1004900003970FF0B5FB04F5FE7084F8FD7104902E
:1004A0009BF80C00A0F16101172929D80122C04B4B
:1004B0008A401A4209D003A904AA5846334600F0DC
:1004C0007BF900274FF0000937E112F0710F25D1B9
:1004D000022915D130680027011D3160006884F8B9
:1004E000FC01C0B2DBF80010B0FA80F04FEA5019FE
:1004F00021F00201CBF8001004F2FB1104911CE181
:10050000A0F14501032909D3252800F08180412865
:1005100004D05828CFD04FF0000984E03068A54DB2
:10052000073020F0070000F1080131609BF80C3023
:10053000A3F161021E461A2A38BF203E90ED000B3F
:1005400051EC100BCF432F4219D10F466FF31F57B9
:10055000074314D061204FF000099E4208BF41209C
:1005600084F8FB014FF06E0008BF4E2084F8FC01B8
:1005700084F8FA01022704F2F9100490DDE021F07A
:1005800000477D40054320D16E229FED870B9E42A0
:1005900008BF4E2284F8FB214FF0660208BF4622B6
:1005A00084F8FC2169229E4208BF492284F8FA217E
:1005B00004F5FC72049253EC102B09F011FB58B3B4
:1005C0002D204FF0000904272AE08DED000BB1F13A
:1005D000FF3F4FF000099DF8075085F080058DF82A
:1005E0000750009DC8BF05460198C8BF084640ECAB
:1005F000105BCF0FA3F14100062840F29880062A35
:1006000000F29B80DFE802F09C999999ADB2B700A7
:1006100025202080012087E02B204FF000090327B0
:1006200084F8F90189E0A0F16F014FF0000A09296F
:100630004DD8012202FA01F140F24322114246D084
:100640009BF8000004EB08072646C007049809D170
:1006500004F2FD11DBF804202646091A9142DCBFA2
:10066000791A4E1C411C304600224FF4FF730025BE
:100670000EF001FBB9F1000F04901CBF00F8015B04
:100680000490B84207D8391A0138202201310FF0FE
:10069000B7FA002038709BF80000C00605D4311B63
:1006A000204620220FF0ACFA3AE0A64238D0311BA7
:1006B0002046302230270FF0A3FA039850EA0A00B0
:1006C00012D19BF8000040070ED4204612E05828B3
:1006D000B6D0002F39D0012F5CD101200390DBF878
:1006E000000000F0020A36E03178204600F8011BD5
:1006F00006F8017B9BF80C1041290DD0582905D034
:10070000612909D0782901D0702909D19BF80020EE
:10071000120701D4612903D17178417030207070C3
:1007200020460FF0CFFC484405B0BDE8F08FDFE86D
:1007300000F007040404181D22009BF80C0072E767
:1007400004A9584600F0B0FBBCE6DBF800000399B2
:1007500000F0020AA1B104982D2100F801190490BB
:100760006EE704A9584602F00FF8ABE604A9584614
:100770000AF092F8A6E604A9584600F041FEA1E668
:10078000BAF1000F09D1400704D50498202100F8E0
:10079000011904904FF0000A52E704982B214FF002
:1007A000010ADAE700BF00BF0000000000000000FF
:1007B00008C190000000F07FF8B505468068144637
:1007C0000F46B0F1FF3F04DD286820F010002860DC
:1007D00001E00120A860287B1026582807D078283F
:1007E00005D0702803D06F2814BF0A260826284693
:1007F000194600F053F8AA684AB950EA010206D136
:100800002878000749D52B7B0020002112E02B7BA4
:10081000642B04D16423B1F1FF3F0BDC04E0692BAE
:1008200008D1002906D5692301223A6000224042FE
:1008300062EB01013246009400F0AAF83021AA6868
:10084000904205DA22680130531E23601170F6E7EA
:10085000287B582818BF782810D1297809070FD588
:1008600021684A1E2260702808BF7820087020681E
:10087000411E216030210170287B01E07028ECD0FE
:100880006F280AD12878000707D5206841783029D9
:1008900003D0411E216030210170F8BD027B702A17
:1008A0003FD0006843F660731840B0F5005F18BF92
:1008B000402812D1A2F16400142830D8012303FA91
:1008C00000F0324B18422CD110F0210F27D00868CD
:1008D000021D0A600068C1177047B0F5807F26D0FE
:1008E000B0F5007F3CD0B0F5006F20D0B0F5805F50
:1008F000E0D02028DED1A2F16400142808D801231A
:1009000003FA00F0214B184204D110F0210FDED180
:10091000582A39D10868021D0A60008805E0582A63
:1009200032D10868021D0A60006800217047A2F1F8
:100930006400142808D8012303FA00F0134B18426E
:1009400004D110F0210F01D1582A1DD108680730B9
:1009500020F0070000F108020A60D0E900017047AA
:10096000A2F16400142808D8012303FA00F0074B11
:10097000184204D110F0210FA9D1582A04D10868D7
:10098000021D0A600078D0E70020CEE700081200C0
:10099000F8B505461148124E582B069F144608BF5D
:1009A000064655EA010011D13868421E3A603022ED
:1009B00002700BE02846224600F014F83A68531EF5
:1009C0003B6000FB14530546F35C137055EA0100CD
:1009D000F0D138680FF076FB0138F8BDC11E010078
:1009E000B01E0100102A06D0082A09D1C00840EA2A
:1009F0004170C9087047000940EA01700909704751
:100A000019B9B0FBF2F00021704780B500230FF058
:100A100001F980BD2DE9F84305460C46480413D47E
:100A2000A00024D4A0075CD460057ED4200500F18A
:100A30000681200700F13B81600040F1F68008F05C
:100A40009FFE24F08044F0E00FF084FBDFF81C14DC
:100A50000F6D3FB1D7E90A1202F0E04201F00A013E
:100A6000891849D00FF091FD24F48044DDE0BB48A3
:100A7000DFF8FC73016841F080010160B87801285B
:100A800004D104200CF006F80020B8700FF062FBCF
:100A9000064604200FF088FBDFF8D8130A6890425E
:100AA00019D12A7EBAB1FA68AAB1DFF8C003806C06
:100AB000002800F09780C16840F60302098891423F
:100AC00006D0C06840F604010088884240F08A8061
:100AD00005F1140088E040F6C4120860C5E904225C
:100AE00084E002F0D3F9DFF88403006C002840F0C2
:100AF0009D8024F0020498E0D7E90A65D7E90A123C
:100B0000AA43B143C7E90A120FF03FFDB8680028B5
:100B1000AAD056EA0500A7D0D7F808C03869B7F9B7
:100B2000301032462B46E0479EE70FF013FB054698
:100B30000DF0DAFB002800F0B780CC48876B002F5F
:100B400000F0B280DFF828830420CB49002288F827
:100B50001800C6480EF04CFE0FF026FDC7480FF0F7
:100B60000EFDC7480068006B8047C8F810000125DB
:100B7000042088F802500CF05BFA386990F82810CD
:100B8000C8F80400490703D5436A042100229847A6
:100B9000012009F0A3FBD8F80400457606F0FEF822
:100BA000D8F8040081680B461A465B684BB11E8872
:100BB000A6F60306072EF7D805FA06F616F0830FF9
:100BC000F2D0537B03F0F003013353730023FD682D
:100BD00053602D88A5F60305012D00F28A80C8F820
:100BE00010309FE005F110000AF0F2FE30460FF0E1
:100BF000CCFC0CF035FA78B12E6A28466FF480717F
:100C000000224FF00073B0479848806B10B108F095
:100C1000B7FD01E044F00204EE69284600210022FD
:100C20004FF08063B04724F0005434B19748214618
:100C30002830BDE8F8430FF041BDBDE8F8838C4E85
:100C4000B078012804D104200BF024FF0020B070FC
:100C50000CF006FA38B170686FF4807100224FF022
:100C60000073056AA847306950B185480068006B79
:100C7000804732697168801A000BC86000203061BB
:100C80007A4D8149002228460EF0B2FD02203076CE
:100C9000286C20B17D48022128300FF00FFD08F0AC
:100CA0006FFD24F40064C0E70FF07EFC41E00FF01C
:100CB00051FA05460DF018FBA0B1DFF8B48198F8A1
:100CC000000000070ED498F9000000280AD46846F6
:100CD00006F05AF908B1009820B1DFF8B49199F8FC
:100CE000610048B30FF060FC08F04AFD24F00804EE
:100CF0009BE7034633F8385FA5B190F8445090F86D
:100D0000456005F0F00580F8445006F0F005013527
:100D100080F8455000255360C5634587507B00F03F
:100D2000F000507357480022C261016001200DF0AD
:100D3000E1FC24F4806478E700260127602E0FD0C0
:100D400009EB0600817A31B18772407A07FA00F028
:100D5000C0B20BF0D3FE2036F0E700BFCC21084034
:100D6000032088F8180045480FF009FC0FF01CFC20
:100D7000444F3E4D0022786900207861F968F860A0
:100D8000284644490EF034FD3D480068006B80471A
:100D9000D8F80C10D8F82020411A02EB1130B0EB33
:100DA000113F38BF4FF0FF3098F82410C8F82000EA
:100DB00021B1D8F80810B0EBC12F20D90DF0AAFC52
:100DC000B8B140F60900414621F83C0F00204880A8
:100DD0004A7B02F0F00201324A730A7B02F0F00211
:100DE0000A734860F8613960B8F83E0010F4406F4B
:100DF000FAD00020C8F82000012088F824000AF06A
:100E000029FA254800210160022000210DF072FC22
:100E100002200BF03FFE102005F054FC98F8010072
:100E200020B9D8F8040050300FF044FC1B488078FB
:100E300010B90D2005F046FC98F8250028B10020D7
:100E400088F8250005200BF025FE002088F8180002
:100E50001348C8F81C000220B5F85610B5F8542005
:100E6000914208BF072008F00DF93DE7300500204A
:100E7000C8020020B8070020C5E200007061002011
:100E80008C01001000100440394800006804002064
:100E9000B85E0020E597000000000460A820010073
:100EA0002D4400000EF0E6B82DE9F84F2DED048B2F
:100EB000A6B09FEDA18B0746002054EC105B8A463C
:100EC000B0EE409A0B9028462146F0EE609A53EC23
:100ED000182B08F099FEA8B99FED998B284621465A
:100EE00053EC182B08F086FE60B99FED970B28464F
:100EF000214653EC102B08F069FEB0EE498AF0EE63
:100F0000698A48B9B0EE480A0BA8F0EE680A08F002
:100F100003FB0B9801380B908DED088B9FED8A0B2E
:100F20008E4A8D4958EC184B9DF8270056EC105B03
:100F300080F0800033468DF8270030208DF8300097
:100F4000387B412808BF0A460792204641462A4678
:100F500008F046FE089A0028334608BF2246099941
:100F6000104608BF414641EC182B2A4606950596C7
:100F700008F02CFE0DF1300BBD6804970BF1010653
:100F800098B9B0EE480A25A8F0EE680A08F0C4FA4D
:100F90002598B0EE480AF0EE680AC0F1010003F0AF
:100FA0003BF9B0EE408AF0EE608A58EC189B484658
:100FB00041460AF0B3FB3146044609F01AFB0746E6
:100FC00020460CF09FFA02460B464846414600F088
:100FD000F7FE41EC100B0135CDE902762AD39FEDE7
:100FE0005C1B06EB070BCDF804A058EC114B59EC39
:100FF00010ABDDE905325046494608F0E7FDD0BBAD
:10100000504649462246434603F094FC05460E46A8
:101010000AF084FB07460CF075FA02460B46284698
:10102000314600F0CDFE41EC100B0798C05D0BF887
:10103000010BDCE79FED461BBB4459EC118BF5B16E
:1010400051EC100B42464B4603F074FC06460F462B
:101050000AF064FB04460CF055FA02460B46304693
:10106000394600F0ADFE41EC100B0798013D005DE4
:101070000BF8010FE3E7049EDDE901A81CE05C46E4
:10108000079D14F8011928460EF01FFE401B049E10
:10109000DDF8088008280FDB079F002521783846F7
:1010A0000EF013FEC01B0E2802DD04F80159F5E70F
:1010B00007990844407820700020702152468BF830
:1010C0000000307B412808BF50210B9809F018FE22
:1010D000B268039C501C04D120460EF0F3FF421E60
:1010E000B2602046414653460BF0F2FDB06808B1AD
:1010F000012202E03068C0F3C00220464146534658
:1011000007F0F6FFDAF800007822411ECAF8001056
:10111000317B412908BF58220270DAF80000411ED5
:10112000CAF800103021017026B0BDEC048B01B06C
:10113000BDE8F08F00BF00BF000000000000F07F9E
:10114000000000000000F0FF0000000000000000B0
:101150000000000000003040C11E0100B01E010070
:101160002DE9F04F8DB0044600209A4616460F46F2
:10117000CDE90B00CDE9090087488568804606F077
:10118000EFFF1C2803D006F0EBFF1B281BD1308893
:1011900040F60201884218BFB0F5C15F03D1F07B71
:1011A000022810D93EE043F6070188420BD196F899
:1011B0002400032807D33069784940F0806020F08C
:1011C000604088422ED100206FB366B3387825FA8C
:1011D00000F0C00726D0304600210FF05BFA7048BF
:1011E000C4E90176006880B109A800900CA90BAA97
:1011F0000AAB304602F0E8FD0B980B214FF6FF7268
:1012000050230DF007FAFF280CD00EF0A3FF654F16
:1012100006467878012802D840B1012070E03046B7
:101220000FF0B3F900200DB0BDE8F08F02F040FDE3
:101230005D480DF10409016841F0020101605B485D
:10124000C8F8000048460EF0E3FDDFF864B15A49E3
:101250004A469BF801009BF80050039055482830FF
:101260000BF080FC554856494A460BF07BFC48463B
:101270000EF066FDDFF84C81534A19214B4602956A
:1012800040460AF0C1FF514A08F11C001A214B46A2
:101290000AF0BAFF4E484F490FF011F94E484F4936
:1012A0000FF00DF94E48006810F4402F06D04D4A5B
:1012B00007F12800042100230CF0E0FF9BF8020056
:1012C00010B10D2005F00CFB08F140000EF09BFA68
:1012D00008F138000EF097FA4349002007223876CB
:1012E000B8843862386181F860200521C7E90210AE
:1012F0003E49F9613870042000210DF0FBF978783F
:101300002C4941F820400130787030460FF03DF90B
:10131000BAF1000F06D10DF1040A354920225046DA
:101320000FF028FADAE90012BAF81000DAE9063507
:10133000002AB2FA82F608BF40F6C4126261216048
:1013400060832563760926764FF4FA76C4E9036252
:1013500001226276274AC4E90722C4E90923DAF8A0
:101360000C0000B12062DAF8140000B16062DAF813
:10137000080000B1E06104F13800C8210EF046FC1D
:1013800004F1500000210DF0E5F91B4904F1B8000B
:101390000FF095F8204646E7CC2108400F000005E5
:1013A00078070020C802002000200940110000E05A
:1013B000A820010068040020F1ED00003862002040
:1013C000FD60000030050020E597000071890000F5
:1013D000B4610020A1E20000706100209DED0000DA
:1013E000B44F005085AA0000B85E00202D440000D4
:1013F000141F0100AF3C0000AF0501000DF048BE16
:101400002DE9F84F2DED028BA2B08046806820B107
:10141000B0F1FF3F04DC062000E00120C8F808001E
:10142000029004918DED060B9FED7B1B55EC104B4C
:101430009DF81F00294653EC112B80F080008DF899
:101440001F003020019205938DF82400204608F0FB
:10145000C7FB9FED730B069900284FF0000A08BFE9
:101460002146079856EC109B9FED710B08BF28464C
:1014700040EC181B54EC10BB55EC187B4A46334625
:101480003846294608F0CAFB50B1384629465A4624
:10149000234601F045FE41EC180B0AF1010AEBE787
:1014A0009FED610B019F2546CDF80C8056EC104B4B
:1014B00058EC189B059B3A464846414608F086FB87
:1014C00088B9484641462246334608F089FB50B168
:1014D000484641465A462B4603F02CFA41EC180B7D
:1014E000AAF1010AE4E7484641460AF017F90DF16E
:1014F000240808F10106314609F07BF80299884278
:1015000005DD013118F8012008EB010426E0C9438C
:1015100008EB0004A946059001EB000857EC185BA6
:10152000284639460AF0FAF80BF0ECFF02460B4663
:101530002846394600F044FC5A464B4603F0FAF977
:1015400041EC180B0AF0EAF800F1300218F101083A
:1015500004F8012FE2D305980DF1240800EB0A05E9
:10156000D0B2039F35280CD3601E3021027801329F
:101570000270D2B23A2A02D300F80119F6E74045C8
:1015800002D00020207004E00020013504F8010C96
:1015900009AE049C15F1030F02DBB868854207DD34
:1015A000397B681E22460239C9B209F0A9FB012520
:1015B00030460EF087FD013800220121A8421ADBD7
:1015C000002801D4325C00E03022B2F1300318BFB1
:1015D000012363EA0101C90705D13978090702D45B
:1015E0000022012105E021684B1E23600A700122C0
:1015F00000210138E2E738682946234600F0080058
:101600000243304618BF012207F072FD22B0BDEC44
:10161000028B01B0BDE8F08F000000000000000068
:101620000000C0FFFFFFDF41000000000000F03FAE
:1016300000000000000024402DE9FC47D0E90058DC
:101640008246D8F80000D0F8409019F4F06FC0F846
:10165000449035D05FEA495117D5D5E91401411AB4
:1016600050460BF0D5FFD8F800008169C90605D4B3
:1016700001688DF807109DF80710F6E72968013119
:101680002960A97B09B90121A973696C40684FF0F1
:10169000004600F00F0404EA0100B0FA80F126FAD7
:1016A00001F1014005D02F6C1FB12A68AB6C504688
:1016B000B847B4FA84F026FA00F020404042A8630C
:1016C000D5F85801D8F83C1009F040074068006888
:1016D000D0F804251140394347D0DAE90064504678
:1016E00007F07CFED7B1F07C90B90BE0316F69B1A7
:1016F0000068B16EB26F8854306FB16F013101383C
:10170000B167306720688169C906EFD5F07C28B1E0
:10171000D6E91401411A50460BF07AFF96F864009E
:10172000E0B13079022819D017B1B179012901D07F
:10173000316F99B90024B16E0128346786F864408E
:10174000B46607D1B36CB26FD6F8CC605046009443
:10175000B04703E006F17C000EF0ACFF504603F00A
:10176000D9FAD5F858014068006800F204500068C2
:10177000D8F83810084228D0D5F8F80028B3DAE9AC
:101780000076504606F06CFB504604F015FD787963
:10179000012812D1D7F8F40078B997F8E80060B1C1
:1017A000002087F8E800BB6CD7F8EC10D7F8FC20D5
:1017B000D7F8504100905046A047D7F8F80020B91C
:1017C0003068816B41F4006181635FEA095023D581
:1017D000D8F8000081690907FCD4016B21F48071FD
:1017E0000163297A91B10020287295F8440080069F
:1017F00006D52C6C24B1AB6C504620210022A047AA
:10180000504601210CF054F9D8F80000816B21F406
:1018100000618163687908B1BDE8FC8705F58070D7
:10182000BDE8FC470EF046BF2DE9FE4F1D461446AD
:101830000F4681460EF08EFCDFF8C0A183464FF6BE
:10184000FD78DAE90010494518BF084660B1B830A4
:101850000EF016FF40B19AF82400CAF8209040F02C
:1018600004008AF824009FE00CF034FF002868D0C0
:1018700006466348CDF808B0DDE90CB80EF07FFEEF
:10188000604908F0200EB1F8540001306FF31F30AA
:10189000A1F85400B5605C480025C6E903792268C8
:1018A000D4F80C8086F83250C6E908550BEA000CD3
:1018B000207C72632279C6E906CEC6F8408086F89D
:1018C000440086F83820B1F8541086F83350D4E933
:1018D00005533186A168C6E91253F163A18BA6F8BE
:1018E000501028B9B8F1000F1CBF012086F8440041
:1018F0004AB9387B00F00F00022804D1012086F895
:101900003800B8687063DDF808B00822FF2353FA86
:1019100082F23C46D0B2851A18BF01257F680FB10C
:10192000002DF4D1208800F47C40B0F5305F0BD15D
:1019300096F833000022082340F0100086F83300A8
:1019400004E008F101082FE0002202234CEA030022
:101950004EEA02012B4DC6E90601DAF8200048459F
:1019600007D19AF82400C1071CBF00F0FE008AF8D6
:1019700024002648046854B1A96CEA6C05F14000C3
:1019800005F1380300903046A047033013D1FD2005
:101990009AF82410CAF820904FFA80F841F0040118
:1019A0008AF824100EF0ECF958460EF0EEFD0FFA0E
:1019B00088F0BDE8FE8FB6F83080B5F85410414588
:1019C00001D00EF0DDF9C0B2012801D8FE20DFE71A
:1019D000002089F8FC0096F8330040F0800086F87B
:1019E0003300A86BB04205D0F068007B00F00F0018
:1019F0000228D9D107F0C4FED6E700BF6804002052
:101A00007061002030050020FFEFFF9F800700205D
:101A10002DE9FF41DFF8BC81002003900290D8F847
:101A20003840B4B3D8F84C0010B9D8F8480070B3B7
:101A3000D8F8480060B12069D8F848100969814297
:101A400006D194F83300C00602D5D8F84C0090B106
:101A5000002702A887F0010103AA06F071F80546E5
:101A6000FFB9F5B10299002900F09D805A480DF0A8
:101A7000BDFC002714E0D8F84800C0684088002862
:101A8000F9D0D8F84800C06840880128F3D0012771
:101A9000DFE75248022128300EF010FE0027002513
:101AA00000242CB34E48466816B30298B0FA80F072
:101AB0004009284001281BD1D8F84800D8F84C101C
:101AC000039A87F00103CDE9003208F1380208F1EA
:101AD0004003B047012868D0022809D1D8F848004F
:101AE000012201230069D8F84810B1F9301065E0EF
:101AF0002046002C18BF01203840012851D1394818
:101B000021694068814203D034484FF4806145E048
:101B10000298002818BF01202840012806D1D8F8D3
:101B2000480018B9D8F84C0000284DD008200DF016
:101B300051F994F833004C25C00658BF482508F1E8
:101B400038000CF0F1FC48F80500274BD4E90601F9
:101B5000C2439A60DA681043D860C8431860586876
:101B60000843214658600820E5680CF0C3FD28466C
:101B70000CF040FD288843F60601411A022906D3DD
:101B8000B0F5C15F03D040F60201884203D10120C5
:101B900029460CF0AFFD11484FF0804128300EF07F
:101BA0008DFDBDE8FF8100277BE70398002818BF63
:101BB0000446B4F93010206901220023009200226B
:101BC00001F0A6FDBDE8FF8108200AF097FFBDE8FF
:101BD000FF8100BF30050020B461002068040020B0
:101BE00080070020C8020020081004402DE9FE4FA5
:101BF000D0F80080994614460E46824613B1002064
:101C0000C9F800000EF0A6FA834698F8070038B12C
:101C100098F8640048B10EF0BEFC6FF00805B3E020
:101C20000EF0B9FC6FF00E05AEE0002C4AD0504625
:101C300007F0D4FB00200121C8E91A64C8F87040FD
:101C4000C8F87800C8F8380088F80C0088F80A004E
:101C5000504688F864100AF063FD504603F05AF8C5
:101C600008F14C0402AD204629460CF07FFCD8F860
:101C700070100746D8F878008F4288BF0F46029947
:101C800030443A460EF076FD204639460BF0DEFB36
:101C9000D8F87000D8F87810C01B3944012FC8F864
:101CA0007000C8F8781001DB0028DCD198F8041027
:101CB00002290CD10020C8F8680088F86400C8F830
:101CC00070001BE00EF067FC6FF009055CE0A8B93E
:101CD0000020D8F86860012988F86400C8F8680016
:101CE0000CD10124584688F810400EF04EFC98F8AC
:101CF0000F0000284BD00EF02DFA83460EF04BFC5F
:101D000098F8040008B100252FE0D8F8701008F109
:101D10007C0031B30C990EF0A2FB10B1012088F8C1
:101D20000C000EF017FA0446504607F057FB00204F
:101D3000C8F86800C8F8700088F86400504602F0DF
:101D4000E9FF98F80A6098F80C5020460EF01DFC48
:101D5000002D18BF6FF00C05002E18BF6FF00D0599
:101D600003E0002100250EF07AFB0EF0F3F9B9F143
:101D7000000F07D098F8041001291CBFD8F878107C
:101D8000C9F800100EF001FC2846BDE8FE8F0025C2
:101D900098F810000028AED00EF0DCF9A8F80F403B
:101DA0000EF0F3FBD8F84830D8F87820D8F8CC708B
:101DB000504631460095B84788F80F50E8E770471D
:101DC0002DE9FC4F83F0004301E02DE9FC4F1F0398
:101DD000FF0847EAD2574FEA42284FEA43095FEA31
:101DE000595906D147EA080A1CBF00210020BDE866
:101DF000FC8F57F000575FF4E06E1EF1FF0EF145C7
:101E000005D14FF00000190D0905BDE8FC8F002B2E
:101E100005D55FF0000AD8F100086AEB07070C034C
:101E2000E40844EAD0544FEA40254FEA4106760DD3
:101E300008D144EA050A19BF0021002019461046BE
:101E4000BDE8FC8F44F00054764504D10020090D14
:101E50000905BDE8FC8F002904D55FF0000A6D423A
:101E60006AEB0404B6EB090E08D5A2463C46574679
:101E7000AA464546D046CEF1000E4E46BEF1360F7C
:101E80005CBF4FF0000B23E0BEF1000F04BF4FF02A
:101E9000000B1AE0CEF1390ABAF120092EBF08FA78
:101EA00009FB07FA0AFB4BEA080BDEF1200A07FAE6
:101EB0000AFA38BFBA4647FA0EF72DBF28FA0EF8CD
:101EC000AEF1200E4AFA0EF8D04415EB08057C411D
:101ED00054EA050A02BF00210020BDE8FC8F002C57
:101EE00058BF4FF0000A06D55FF0010A5FF0000E00
:101EF0006D426EEB0404A6F101066D006441FAD553
:101F000015F4806E11D005F480794BEA090B15F5B4
:101F1000806554F1000428BF761C0BD205F40079CB
:101F20005BEA090B08BF25F4006525F4E0656D0048
:101F300044EB0404B61CDEBF00210020BDE8FC8F8A
:101F40005FF4E06E1EF1FF0E76450AD34FF00000FD
:101F500013F00043FF21C900C91D09051943BDE85D
:101F6000FC8F270547EA1530210B41EA065141EA6B
:101F7000CA71BDE8FC8F704782B02DE9F04F85B083
:101F8000064663480C460121DFF88CA1057A0172F0
:101F90006048CDE90E2390F814B0DAF80C0028B9A7
:101FA0005E4F38460BF056FFCAF80C7028460AF010
:101FB000B1FA0EA814F40077049002D14FF0000893
:101FC00009E00498DFF8588100F1080140680491A5
:101FD000002818BF804616B330460EF07AF88146C6
:101FE0003FB1D8F80400012819DBD8F80800002810
:101FF00015DD0020BBF1020F019004D1DAF80C00CE
:102000000BF0D4FC009030460BF098FE054617B15B
:102010000DB1200522D43FB935B9022464E00EF099
:1020200093FA162101606AE001AB0020082100222A
:102030000AF08EFA002856D007468DB1E8690130C3
:10204000E8610099BBF1020F03D1DAF80C000EF041
:102050004EF804F48040C7E9005052E0112443E0F8
:1020600001AB0020242100220AF072FAA8B3054631
:10207000012009F101090022E861D8E90101C5E95F
:10208000040101AB002049460AF062FA2862F0B16F
:1020900016F8011B00F8011B0029F9D1D8E901103D
:1020A00001AB002200260AF013F8A86040B16E6070
:1020B000DAF8100000B145602860CAF81050C0E797
:1020C000296A21B1DAF804004A4643689847DAF8E9
:1020D00004002946242243689847DAF80400394668
:1020E0000822436898470C240EF02EFABBF1020F29
:1020F000046004D1DAF80C0000990DF0F8FF4FF0FD
:10210000FF37384605B0BDE8F04F02B0704700BF5A
:10211000D805002030030020980300200063002031
:10212000882001002DE9F04706680446307B02282C
:1021300012D196F823006568D6E904A7914688462F
:1021400080B1B16858480EF08AF940B100206FF0B4
:10215000010786F8250055E06FF0060752E00120E0
:1021600086F82600002052492246F0614F48C6F802
:10217000008086F821900DF03BFB297827200CF099
:10218000E3FD50463946062201F066F858B196F84C
:10219000260098B344480EF08DFA002086F82600F9
:1021A00086F825002AE0434D434FD5F8800320F000
:1021B0000200C5F8800396F82000042804D157F8DF
:1021C0004C0C4169272088470220C5F8FC0238687A
:1021D000416806208847C0B14020286080202860E0
:1021E00096F8260038B130480EF064FA002086F8E0
:1021F000260086F825000020C5F8FC024FF0FF30CD
:10220000F061F7693846BDE8F0870220BA460AF067
:102210000FFF0027B9F1020F0AD0B9F1040F4FF0F8
:10222000000006D0B9F1060018BF0120800000E0D0
:102230000020C5F84C010123D8F80C10D8E90102A0
:10224000C5F85011C5F8547186F82430DAF800301A
:102250001D690B46A847256895F8200002281BD069
:102260000428CFD1DAF80000816915488847B0F119
:10227000FF3FDCBF4FF0FF30E8610020EF6985F8D9
:10228000240095F821100339022928BF85F825007C
:1022900020460AF0F1F9B5E708484FF0FF310EF09B
:1022A000DEF8EF69AEE700BF3060002098640020E0
:1022B000AD8F000004440240FC010010806000204B
:1022C000010000800CF0F2BE2DE9F84F2DED0A4B15
:1022D00081463020CDE902129FED5B1B55EC104B7F
:1022E00089F800008DED060B29469DF81F0053EC80
:1022F000112B80F080008DF81F002046CDE90432BC
:1023000007F06EFC06999FED520B00284FF0000A73
:1023100008BF2146079808BF284656EC105B9FED82
:10232000500B40EC181B5BEC108B54EC187B2A46CE
:1023300033463846214607F071FC50B138462146F5
:1023400042465B4600F0ECFE41EC180B0AF1010A34
:10235000EBE79FED410BCDF8049009F1010759EC33
:10236000104B56EC185BDDE904322846314607F085
:102370002DFC88B92846314622464B4607F030FCF2
:1023800050B12846314642465B4602F0D3FA41EC52
:10239000180BAAF1010AE4E72846314609F0BEF914
:1023A000394608F026F900EB0A013E180298039A14
:1023B000B94650441160471C012F1DDBDDF804A015
:1023C00055EC184B2046294609F0A8F90BF09AF86D
:1023D00002460B4620462946FFF7F2FC42465B4682
:1023E00002F0A8FA41EC180B09F098F9303006F821
:1023F000010B013FE4D101E0DDF804A016F8010C67
:1024000035280CD3B31E30211A7801321A70D2B29B
:102410003A2A02D303F80119F6E7534503D0002105
:1024200006F8011C07E000200399D14606F8010CCC
:102430000868013008604846BDEC0A4B01B0BDE8B1
:10244000F08F00BF00BF00BF0000000000000000D0
:102450000000C0FFFFFFDF41000000000000F03F70
:102460000000000000002440B0B560480021604C2E
:10247000016094F83A01032812D002282ED00128D6
:1024800040F0AF8094F8400106F038FA002084F85C
:1024900040015948817B0220002908BF06209EE0A8
:1024A00054480168B1F5C060C4F82C01B8BFC1F54B
:1024B000C060D4F81011002900D5494288422ADDB5
:1024C000D4F814010BF092FED4F818010BF0A0FE22
:1024D000D4F828010BF0C0FE01201DE04548056836
:1024E0000DF06EFCC4F814010DF072FCC4F8180174
:1024F0000DF076FCB5F5C061C4F82801C4F81011E0
:1025000009D094F830215AB1D4F81401D4F820211C
:10251000D4F82C110AE0002084F8300106205EE097
:10252000C4F82401D4E94502C4F82C110223C4F8EC
:102530001C01002948BF6FF0010301EB4101194460
:10254000042391FBF3F111440029C4F820110FDD9D
:102550001F2931D3D4F824212AB33E28A8BF3E2016
:102560000130292928BF2921C4F81C010B3909E0B1
:10257000D4F82421032A09D111F1140FD8BF6FF028
:1025800013011531C4F82011002113E00128D8BF30
:102590000120013811F10A0FD8BF6FF00901C4F80A
:1025A0001C010B3103E0332928BF33211539C4F84E
:1025B00020110321C4F824110BF018FE01200BF0A8
:1025C00039FED4F820010BF023FED4F824010BF0DF
:1025D00043FEA5F2FF510420032938BF0620C4F8AA
:1025E0003C01BDE8B04001F08FBD00BF3C500C4045
:1025F0000000002008400C4018200100FEB50446F1
:102600005A480078A04213D908780D46012801D114
:10261000686868B16878012801D1A86840B1544F52
:1026200057F834600DF096FDF17921B10DF0ADFF52
:1026300000242046FEBD07EBC40401216768F17148
:102640000DF0A3FF002005F1040C7074F081B06060
:1026500030602988B180A98BC6E93D00C6E90E002B
:1026600086F86400B186297D2B69B1719CE806105B
:10267000C6F85021BCF1000FC6E910C34FF0FF327D
:10268000C6F8CC10A969C6E93B203163A97F86F85A
:102690003610296AC6E91A00C6E91C00B16486F83A
:1026A000E800C6F8580102D13249C6E9101097F87F
:1026B000400004F015F9D7E9031206F14C000DF0C3
:1026C0009FFBD7E9051206F1D0000DF099FB2A49CE
:1026D00038680968C96888477A6C97F8240046F218
:1026E000020105F085F8254DBA6C97F820002946BF
:1026F00005F07EF8F86901280CD1FA6C97F82800EB
:10270000294605F075F83A6D97F82C0046F202015B
:1027100005F06EF807F098F8C6F85801204601F069
:102720008BFF174A06F5AE70042123460BF0A6FD79
:102730006D4628460DF004FB387A7968114A2B461D
:102740000094019006F1140009F05EFD06F17C0092
:1027500000210BF0FFFF06F5807000210BF0FAFF5F
:102760003868D7E90C121060486062E7231C01004A
:10277000142101001F4C0000D00100100260002055
:1027800021FA0000391600002DE9F84F2DED048BD9
:102790009CB0B0EE408A9FED529B86688946074602
:1027A000F0EE608A54EC185B53EC192BB6F1FF3F46
:1027B000DCBF0626BE602846214607F025FAB0B9E0
:1027C0009FED499B2846214653EC192B07F012FA3E
:1027D00068B99FED470B2846214653EC102B07F0B4
:1027E000F5F9002876D1B0EE489AF0EE689A9FEDA0
:1027F000420BCDE900694FF0000A5BEC106B9FEDD6
:10280000400B55EC104B58EC199B32465B46484642
:10281000414607F0E5F950B14846414622462B466D
:1028200002F088F841EC190BAAF1010AEBE7B8466F
:1028300056EC197B22462B463846314607F0E4F920
:1028400050B13846314622462B4600F069FC41EC37
:10285000190B0AF1010AEBE7B0EE498ADDF80490A2
:10286000009E4746F0EE698AB0EE480A03A802AA25
:102870003146F0EE680AFFF727FD029D0446022D5F
:1028800009D120460DF01EFC204400210AF1010A66
:10289000012500F8011C397B50464A4608F030FA01
:1028A000BA68204629464B460AF012FA20460DF037
:1028B00009FC854206BF3868C0F3C00201222946E0
:1028C0004B46204606F014FC1CB0BDEC048B01B056
:1028D000BDE8F08F4FF0000AC6E700BF00BF00BFA1
:1028E000000000000000F07F000000000000F0FF8A
:1028F0000000000000000000000000000000F03FA9
:1029000000000000000024402DE9F84FD0E90054F9
:10291000994616468A46834613B10020C9F800003E
:1029200076B10DF017FC0746E87968B195F8E80034
:1029300088B138460DF029FE6FF00800BDE8F88F29
:102940006FF00900BDE8F88F38460DF01EFE6FF0FD
:102950000E00BDE8F88F0020012105F58078C5E95B
:102960003BA6C5F8F460C5F8FC0085F8E810E863FC
:102970006873E872404600210DF071FD20460DF0AD
:102980004FFC38460DF001FE0CF027FF08B96879BE
:10299000C0B395F84400C00606D52C6C24B1AB6CCE
:1029A000584610210022A0470DF0D4FB044658469B
:1029B00003F002FC20460DF0E8FD687960B90A9941
:1029C00040460DF04CFD08B101206873584605F0F3
:1029D00047FA002085F8E800B9F1000F1CBFD5F8D0
:1029E000FC00C9F80000E87A28B10020E8726FF016
:1029F0000D00BDE8F88F687B002818BF6FF00C0051
:102A0000BDE8F88FDBE9005495F84400C00614D502
:102A10002F6CAB6C584610210022B8470DE0D5F85A
:102A2000FC0031460AEB000220460AF0B5F8D5F862
:102A3000FC10361A0144C5F8FC10002EEFD12046D8
:102A40000DF0FEF90028FAD020460DF0DDFB95F8D8
:102A50004400800605D52C6CAB6C58462021002222
:102A6000A0470020B9F1000F85F8E800C8D0D5F8DC
:102A7000FC00C9F800000020BDE8F88FF8B54B4C09
:102A80009021201D0DF0C2F8494D9021281D0DF018
:102A9000BDF8484E9021301D0DF0B8F8464F9021FA
:102AA000381D0DF0B3F88C2004212E6037602560AE
:102AB0003C602022F0807171404EE88069710025F1
:102AC000E080F88061713F4879713F49C6E900456F
:102AD0003B4C206404F11C00A4F844500DF04AFE65
:102AE00094F828003A49402240F0800084F82800F9
:102AF000364C20460DF03EFE2661364E364906F134
:102B00001400203160610A20E0776162A0773348C9
:102B1000022120620B20A073A6202077207B40F0AA
:102B200080002073607B00F0F00001306073E07B78
:102B300040F00100E073E07B40F02000E073E07BB8
:102B400040F01000E073E07B40F04000E073E07B79
:102B500040F08000E073208B40F001002083208B48
:102B600040F002002083208B40F004002083208B63
:102B700040F400402083E07E40F00100E076E07EFB
:102B800040F00200E076E07E40F00400E076E07E77
:102B900040F01000E076E07E00F09F002030E0760C
:102BA000B01C0AF095FE3570F8BD00BFD05900206A
:102BB000645A0020F85A00208C5B0020880700200F
:102BC000D0040020345E0020F41E0100F8610020D3
:102BD000481D01006002002088050020805F002061
:102BE0002DE9F047012816D1DFF830A1DAF83401D9
:102BF000012813D10220CAF834010AF0C7FC0120D1
:102C000001240AF035FB60B1CAF834410BF042FDF3
:102C10004FF0FF347FE06FF001047CE06FF00404BC
:102C200079E09AF85A419AF859119AF85801002C0B
:102C300018BF0124002918BF0234002818BF04342B
:102C400001200DF0B1FA013818BF01209AF83811AF
:102C5000B1FA81F1490910EA010902D1002002F01C
:102C6000F5FDDAF808002E4D10F0010807D12D4FC0
:102C7000286A8168384688470428F9D006464046C5
:102C80000DF0E8FBB8F1000F08D1012E04D1286A3D
:102C900001214268234890470DF08AF8286841696D
:102CA000204688479AF8540118B14FF480600DF01F
:102CB00081FA9AF8530118B14FF481600DF07AFA55
:102CC00019480121016003200021CAF83401174886
:102CD0000160204608F016FE0128FAD1144E306833
:102CE00004200AF0C5FA044612480125B9F1000F84
:102CF0000560306802D1012002F0A8FD0DF036FA1F
:102D000008200AF0B5FA0443CAF8345118BF4FF04E
:102D1000FF340BF0BFFC2046BDE8F0870000002028
:102D2000B801001000400340282008600C20084033
:102D30002C2009400C4009402DE9F84FDFF834A160
:102D4000804605269AF80000022840F090804A4804
:102D500004240022494F8AF8004002602022DAF859
:102D60000800D1F8009091F804B045490090384629
:102D70000DF000FDBAF802000321F8810AF15000BD
:102D800078603975397B41F080013973797B01F0C6
:102D9000F001023179733E747C74B97C01F0E0017A
:102DA0000131B974B97C01F0DF01B974B97C01F06B
:102DB0003F01B974F97D01F0F0010131F975314934
:102DC00091E8FC00FCC0ABF102008AF85F009AF8C1
:102DD0005C0040F080008AF85C009AF85D0000F02A
:102DE000F00001308AF85D004046CAF860900DF0AE
:102DF00005FCA0BB99F80000800630D59AF85D006C
:102E0000214900F0F00002308AF85D000AF1240048
:102E1000CAF8540091E87C007CC099F802008AF856
:102E200032004FF45860CAF834009AF8300040F08D
:102E300080008AF830009AF8310000F0F00001308C
:102E40008AF831009AF8330000F0F00004308AF874
:102E500033009AF8330040F080008AF833000020F5
:102E60008AF80100009808F0E5FE80B2C60B3046F3
:102E7000BDE8F88F60020020CC0700208805002004
:102E8000D41E0100C01F01002C2001002DE9F047D5
:102E9000DFF83491D9F840A0BAF1000F00F0898032
:102EA0000AF10C020820FF2151FA80F0C3B21B1A6C
:102EB00018BF012312686AB163B11388A3F6030334
:102EC000012B01D90432EFE7DAF8100092E8FA009A
:102ED0003830FAC0DAF808200025DAE90A10CAE921
:102EE0000A55B2B110F0E2440CD021F00F0220F0EC
:102EF000E2434FF0000852EA030005D00DF064F8F9
:102F0000B04701E0884604460DF05EF8424623468D
:102F1000B0470DF01FF90446B9F8560001306FF3C1
:102F20001F30A9F856004FF6FD70AAF8300009F1DD
:102F300040008AF833500BF0F7FA20460DF025FBDD
:102F4000B9F85600B9F85410884232D11F482049C8
:102F500040680D6830B190F8FC200720002A08BFB7
:102F6000052000E005204C6806F08CF855B195F876
:102F7000FC00002100284FF0000008BF286885F8F9
:102F8000FC1000E0002044B194F8FC200021002552
:102F900002B9256884F8FC1000E00025A84288BF2B
:102FA0000546681C05D035B90020BDE8F0470BF098
:102FB000F5BEBDE8F08701F02DF9B5FBF0F105484D
:102FC000BDE8F0470CF012BA30050020C80200201E
:102FD00068040020706100202DE9F047DFF83CC153
:102FE00089468246034613F8017B0CEB07004078C4
:102FF000C006F8D42B2F06D02D2F0AD14FF0004059
:103000004FF0000803E06FF000404FF001081F7818
:1030100004E0013B6FF000404FF00108242AC8BFD4
:103020000022102A13D082BB302F21D1194611F86B
:10303000017F47F02002782A21D1194611F8027F3A
:103040000CEB07025278920716D40A221CE0302FAC
:1030500010D1597841F02001782907D1194611F88B
:10306000027F0CEB07025278920705D410220BE086
:103070000A220AE0102208E010220B4605E0302F59
:1030800001D3382F48D308223027B0FBF2F40026B2
:1030900004FB120E0020A7F13001092998BF9142CC
:1030A0000ED30CEB07014D78690603D5A7F1370164
:1030B000914205D3A90620D5A7F1570191421CD210
:1030C000A04208D801D1714505D800FB021099191A
:1030D00001364F78DFE70DF037FA22210160B9F1B0
:1030E000000F4FF0004018BFC9F800A0B8F1000F62
:1030F00018BF6FF00040BDE8F087B9F1000F05D0B0
:10310000002E18BF03EB060AC9F800A0B8F1000FA3
:1031100008BF4042BDE8F0870822AEE7D0180100A2
:103120002DE9FC4191EA03084CBF4FF000484FF0F5
:1031300000084FEA03354FEA153556006D414FEA56
:1031400043075FEA575711BF45F4001500210020DF
:10315000BDE8FC8140F2007E1EF1FF0E77456FD086
:103160004FEA01334FEA133342005B414FEA410417
:10317000640D11BF43F4001300210020BDE8FC8161
:1031800074455DD0E41B002100205FF0360EAB4299
:1031900000D1B24205D340414941921B63EB050384
:1031A00001E040414941BEF1010E05D053EA02075A
:1031B00002D052005B41EAE7BEF1200F09D2BEF116
:1031C000160F0CD3CEF1200720FA07F100FA0EF00B
:1031D0000FE0AEF1200E00FA0EF1002009E001FA36
:1031E0000EF1CEF1200720FA07F741EA070100FAB5
:1031F0000EF011F4001F02D140004941641E401C32
:1032000051F1000111F4800F1ABF641C21F48001F8
:1032100021F4001140F20037FF37E419DEBF00212E
:103220000020BDE8FC8107F58067BC4208D2490850
:103230004FEA300041EA045141EA0801BDE8FC814F
:103240000020FF214FEAC101C91D4FEA015141EAA7
:103250000801BDE8FC8170472DE9F04F89B00E46AA
:10326000834601A8202114460CF0D0FC202E08D063
:10327000182E04D0102E0CBF0127002702E00227D1
:1032800000E0032744F2040A4FF00108C4F2020AE6
:1032900040F2B01908FA04F5C1F200090094CAF826
:1032A0000054D9F8000044F2007441692720C4F2A8
:1032B000020488470320C4F88080C4F88400C4F85E
:1032C0000080C4F888004FF60850CFF6FF702158F0
:1032D0008F4218BF2750182ECAF8FC5315D101A8E9
:1032E000594618220DF046FA0320C4F8880000BFA2
:1032F000D4F890008007FBD10020C4F248200121BF
:10330000016020260DF1040B11E0BBF1000F18BF86
:10331000002E10D00320C4F8880000BFD4F890001D
:103320008007FBD10020C4F2482001210160CAF8C7
:1033300000B0CAF808600325CCF2000501200DF0AA
:10334000B6F8D4F890002842F8D0D4F890000540A0
:10335000C4F88850D9F80000016A27208847D9F8B6
:1033600000000169272088470020B0EB957F07D136
:10337000DAF800040099C043C84000F0010000E002
:10338000012009B0BDE8F08F2DE9F84F0E46DDE9C8
:103390000A1805469246002012B1120A0130FBE7D6
:1033A000C2B2022A98BF0220C4B2B8F10D0F28BFE2
:1033B0004FF00D0888F00F02A24288BF10466FF050
:1033C00007020093A0F101092C4602EB8303324669
:1033D000002EC0B218BF0122C0F10F0043EA8212D2
:1033E00042EA090204F8582F4045B8BF80465FFA08
:1033F00088F704F1010B3A4658460DF0BBF96720F7
:103400005146A0F15802BA4203D929540138090A99
:10341000F7E72846214622460DF062F94EB1300A00
:103420000A99FE2808D8207880EA16202070022405
:1034300022E00A99002424E095F8580095F85940B4
:1034400095F85A2095F85B3005F15D0BC04385F87F
:10345000580084F0FE00062485F8590082EA1660C0
:1034600085F85A0083EA164085F85B0095F85C0001
:1034700080EA162085F85C009BF8000070408BF80D
:10348000000005F8689F3A46681C0DF073F978193A
:10349000C7F10F0101300CF0B9FB00982C862E62A9
:1034A00085F8348085F83500102068860020C5E94D
:1034B000090AE862BDE8F88F2DE9F041414F044662
:1034C0007878C8B1DFF80081B8F85400B8F8561021
:1034D00088421ED008F1380120460BF036F880B93A
:1034E000D8F8480010B10069A04207D008F14001A7
:1034F00020460BF02AF803E0BDE8F081D8F8480038
:1035000038B1B0F9301020460A224FF0E04303F002
:103510009BFB0CF01FFE2D4D0646284602C8A1421B
:1035200008BF2846002101607878013878700006CD
:1035300036D17C60387E02280ED1082009F0DEFAF0
:1035400030460DF022F804F150004FF0FF310CF03E
:1035500086FF0CF0FFFD064605F128000DF0ACF8E3
:1035600040460DF093F81A480DF0A6F808F11C003B
:103570000DF08CF81748FEF7A5FE1748FEF7A2FEDF
:103580001648416811B107F15000884707F128003B
:103590000BF090F81248807810B10D2003F092F8EB
:1035A0007868A04204BF0020786030460CF0EDFF40
:1035B00004F150000DF07CF804F1B800BDE8F041D2
:1035C000FEF780BEC80200203005002068040020FD
:1035D00038620020B461002070610020780700206C
:1035E000A82001002DE9FE430CF0B4FDDFF80C919A
:1035F000804699F80100B8B1414803220168826011
:10360000C80711D03F4C20684168022088470190CC
:10361000206841680120884702903B4801A91C307E
:1036200006F0BCFF09F0DEFFD9F80450EDB13649D1
:10363000686A01AF01F11C06A96A884219D23046B6
:10364000394607F069FC013011D0D5E90912E86963
:10365000541A08443946082C28BF082422460DF085
:1036600089F8686A20446862E6E700240CE0D5E93E
:1036700009010024884207D309F1040029460AF011
:10368000A9FA85F83240012499F8010088B9D9F8DF
:10369000040018B180680CF0C1F80AE01A481C3028
:1036A0000CF099FC28B9194A4FF0FF30012106F0BF
:1036B0005DFD40460CF069FFF4B1A8680022016886
:1036C000CA628A690AB10223137091F83030012B63
:1036D00007D0022B10D101F134000CF0EBFFBDE854
:1036E000FE8322B1CB6800219847BDE8FE830C69B8
:1036F000CA698B6A0021A047BDE8FE8350060020FE
:1037000008800240CC0100101406002080A90300AC
:103710002DE9F84F4FF00056002A984617460C4600
:10372000824618BF4FF080464D1C0CF013FD8146B9
:1037300035B150462146002208F028F904460FE032
:103740003748816C11B10969514506D0C16C11B17E
:103750000969514503D0846B02E0846C00E0C46CBD
:1037600034B194F93300B0F1FF3F03DD042451E09C
:1037700003244FE0DFF8A8B00A9DDBF8480084423C
:1037800018D0DBF84C00844214D050462146424603
:103790002B4604F019FA0028E8D02248017E0129BE
:1037A00037D0007E042834D01F48204928300CF040
:1037B00085FF2EE0DBF84800002233460AF032FA9B
:1037C000DBF84C00002233460AF02CFA1848002F90
:1037D00018BF00F580300AF00DFF85B1DBF8480016
:1037E0000CF033FEDBF84C000CF02FFE20690E4984
:1037F000086291F8240040F0010081F82400B8F13B
:10380000000F06D0DBF83810504601222B4604F09A
:10381000DBF9832448460CF0B8FE2046BDE8F88F5B
:1038200030050020C802002068040020020000408B
:10383000010001042DE9F0410546880058BFBDE8AC
:10384000F0810020002406F049FD3D493D483E4FEF
:10385000CC61086040F60A008846B887FC8797F874
:10386000480000F0F00087F848003C6497F84900F1
:1038700000F0F000013087F84900284603F08EFA86
:10388000AC68012021460E46496849B10A88A2F673
:103890000302072AF7D800FA02F212F0830FF2D0DF
:1038A000707B00F0F000707307F13C0070602748F7
:1038B000806B28B1C0680088A0F6030002281AD3E4
:1038C000284630F8381FB1B10021E96369873864B0
:1038D00095F8440095F8451000F0F00085F8440094
:1038E00001F0F000013085F8450097F8490000F03C
:1038F000F00087F849000CF075F81548F86197F862
:10390000250030B10AF07AF90028FBD007F0C6FC98
:103910000BE001200CF048FC012806D0707B00F081
:10392000F000013070730B48F86100202146C8F8A0
:103930001C00C8F800400120BDE8F0410AF0DABEE2
:103940000010044001010E04C802002030050020D0
:10395000150A0000CDAE00002DE9F04387B0DFF876
:10396000FC8081462025EFF3118085F31188D8F87B
:1039700030501DB180F3118800256AE0C8F83090FE
:10398000374F80F311880020C9F80C104FF48031B4
:10399000C9F81C20C9E91200C9E90801002B18BFA9
:1039A0001F46D7E90116C9F81810397B012905D13E
:1039B000C9E91060C9F8146030460DE0294A0020BA
:1039C0003146002300250CF025F9C9E910012649EC
:1039D000C9F814008E423CD80021DFF890E0C9E914
:1039E000160197F800C0C9F85410BCF1020F08BFC7
:1039F0000146C9F8501001AB9EE8F5001946BCF12C
:103A0000000FF5C108F11C001A4ACDF8089000908B
:103A1000174808BF0246142109F128000AF02AFDC0
:103A200005462020EFF3118180F3118881F311887E
:103A300099F8100010B9484607F0BCFD35B108F1FF
:103A4000280049460BF05CFB4D4602E00025C8F813
:103A50003050284607B0BDE8F08300BF980300202F
:103A6000701F010040420F003F420F00D81F0100AD
:103A7000ADC3000031FF00001EF0040F14BFEFF3D0
:103A8000098169468869A1F1480214BF82F3098857
:103A9000954621ED100BF1EE102A41F8082DEFF3B9
:103AA000118102B400B5DFF8D8E0F047374A126858
:103AB000116801EA000010605DF804EB1EF0080FC9
:103AC00009D101BC80F311885DF8080BE1EE100A02
:103AD000BDEC100B704704BC1EF0040F14BFEFF3D5
:103AE00009816946A1F1200114BF81F309888D463F
:103AF0004A604FF08070C86125488861234B1B687D
:103B00001868086040F201101860704702B401B4F0
:103B1000EFF3148100291CBF002282F3148802B441
:103B200002B4DFF860E0F04701BC01BC00281CBF14
:103B3000022181F3148801BCDFF84CE0F0470F4804
:103B40004FF08051016001BC80F3118800BF00BFBD
:103B5000FFF7FEBF1EF0040F14BFEFF309816946A3
:103B600001F1200151F8080BE1EE100AB1EC100B45
:103B700014BF81F309888D46704700BF04ED00E053
:103B8000C99100006306010069060100742101006B
:103B90000C3B00002DE9FE4FD0E900859946144604
:103BA0000F46834613B10020C9F8000074B10CF031
:103BB000D1FA064698F8070058B198F8E80070B1B5
:103BC00030460CF0E2FC6FF008056DE06FF009057F
:103BD0006AE030460CF0D9FC6FF00E0564E000207E
:103BE0000121C8E93B74C8F8F440C8F8FC0088F823
:103BF000E810C8F83C0088F80D0088F80B0028464B
:103C000001950CF00DFB30460CF0BFFC08F1D0061E
:103C10000DF1080A0CF09EFA04463046514609F0B0
:103C20002CFC0546D8F8F400D8F8FC10854288BF73
:103C30000546029839442A460CF09CFD3046294638
:103C400008F052FDD8F8F400D8F8FC10401BC8F872
:103C5000F4004819C8F8FC0020460CF096FC012D31
:103C600003DBD8F8F4000028D4D10CF073FA044632
:103C7000D8F8FC0050B101980CF0D2FA584602F086
:103C80009BFAD8F8FC0008B1002502E06FF00F05A0
:103C90000020B9F1000F18BFC9F80000002088F813
:103CA000E80020460CF071FC2846BDE8FE8F704706
:103CB0002DE9FF413B4E96F8420100286AD10120D0
:103CC00086F842010CF07CFA374F86F87001374DC8
:103CD0007868C6F86C01387B86F84101A86810F452
:103CE000402F13D1386988B128686421C0F3066079
:103CF00000FB01F400F08EFAB4FBF0F22C4906F15F
:103D00009400002309F064F90CF04AF801AC204655
:103D10000CF082FB2749A846002506F10C00002282
:103D20000CF03DF920460CF077FB234906F15000DA
:103D300008220CF034F9214A06F1D8003221002380
:103D400008F062FA1E4C1F4A06F1F4002C210023F1
:103D50002560454608F058FAD8F80800797BC0F38A
:103D6000815021B1032804BF012186F839110328AD
:103D700003D040F00200022810D1206840F040003B
:103D80002060022009F054F96868400702D400203E
:103D900009F04EF9002004B0BDE8F08108F088FC7D
:103DA000F2E700BF0000002018200100AC4F0050D7
:103DB000E1000100B796000051BE00005D910000D7
:103DC00090220840692400002DE9F8431D46434B2A
:103DD000DDF8208043F606061C68038814F00074A2
:103DE00011D0B34227D0B3F5C15F33D040F60206FD
:103DF000B3423ED100F112030B6041691160816949
:103E00002960C1692EE0B3420AD0B3F5C15F03D087
:103E100040F60206B34203D100F11203143002E06F
:103E200000F11A031C300B6000681060002028604D
:103E3000C8F800004BE000F11A034FF000090B60D6
:103E4000C1691160016A2960416AC8F8001000F177
:103E500018011CE000F112030B6041691160416A16
:103E60002960816AC8F8001000F1100190F80F90E5
:103E70000DE000F11A030B60C1691160816A2960CD
:103E8000C16AC8F8001000F1180190F82490286861
:103E900068B10E880CF08AF8042808D8074606F0A6
:103EA0000701484606F004F9296841F82700D8F8C8
:103EB000000060B10CF07AF8042808D8054648469E
:103EC000FF2106F0F5F8D8F8001041F82500002C85
:103ED00018BF01242046BDE8F88300BF94120050AB
:103EE0002DE9FE4304465C301D46904689460BF0A2
:103EF000AFFF012725B10B2D25D00E2D18BF0027B0
:103F000099F81A00400706D599F8062004F1180020
:103F1000394603F0FAFA2046494607F046FC77B9DD
:103F2000207810F00C0F0AD13148406938B9A078D8
:103F300099F81810884202D20130A07052E0002691
:103F4000A67035B914E02046494607F02EFC002043
:103F5000A070207840070AD425480026406938B967
:103F600099F81900E178814238BF012600E0002667
:103F7000E07804F11807494642462B46CDE9000691
:103F8000384604F02CF9FEB1E0780130E0700E2DD7
:103F900099F81A0040F0020089F81A0022D16078DE
:103FA00006281CBF0620607094F85910204607F0C0
:103FB000BDF994F859000130C1B2052928BF052088
:103FC00084F85900BDE8FE836078494642462B4696
:103FD00002281CBF02206070384603B0BDE8F043E1
:103FE0000CF060B92046BDE8FE4304F037B900BFCD
:103FF000205C00202DE9F04F8BB0DFF8FC8092466A
:104000008B4698F8000001280BD002286BD10320C2
:104010003A4988F80000D8F80800B1F904100CF00B
:104020001AFB032088F80000D8F8089003A80BF0CA
:10403000C5F93248DFF8C8C008F138010A46B0F8BF
:104040000100ADF828009CE8F900F9C2A62088F824
:1040500046B000242B4B88F8480098F8440040F004
:10406000800088F8440098F8450000F0F000013026
:1040700088F8450098F8470040F001000CF0DBF9A3
:1040800040F002000CF0D7F940F004000CF0D3F936
:1040900040F008000CF0CFF900F0EF000CF0CBF985
:1040A00040F0600088F8470098F84B0000F0F000FE
:1040B000043088F84B0098F84B0040F0800088F8F6
:1040C0004B004FF47A600AFB00F0C8F84C00022065
:1040D000CDE90004484603AAFDF7A6FBB0F1FF3F77
:1040E00005DC012400E00524012088F800002046BA
:1040F0000BB0BDE8F08F00BF60020020B0070020C9
:10410000A81F0100510601002DE9F84F3C4C3D4E1F
:104110003D4D42F62A294FF0010A4FF0030B0027CC
:104120004FF00508D4F83C01062833D8DFE800F04A
:104130000433183B203D4B000F20F060C6F8109070
:1041400008F09EF845F804AC55F8040C8007FBD540
:10415000C6F81CA094F8390190B10120EF6210E07C
:104160002F60C4F83CB128688007FCD40320DBE74B
:104170002F60C4F83C8128688007FCD40520D3E771
:104180000320C6F800B0C4F83C012F6029688907F5
:10419000FCD4C9E7FEE70126022084F83A6107F063
:1041A00077FE2E6009E0022000E0032084F83A0147
:1041B000002007F06DFE0120286004F15000BDE8EA
:1041C000F84F0CF061BA002045F8040C286055F84F
:1041D000040C8007FBD428688007FCD40B4800251A
:1041E000012105600A4801600D2002F06BFA0220EF
:1041F00008F050FCC4F83C5184F83B51BDE8F88FFE
:104200000000002000400C4058600C403C500C4026
:1042100004800C400A20704710B52DED028B044637
:1042200051EC100B40F2FF73C1F30A529A4216D0C0
:10423000B0EE408AF0EE608AD2B921F0004202432B
:1042400053D09FED2D0B53EC102B00F073FB344A31
:1042500041EC180B944207DC9FED290B3FE002462E
:104260000B46FDF7B2FD3EE0C1F30A50A0F1360265
:10427000101940F2FF7290420FDB0CF065F9222119
:1042800001609FED250B53EC182B51EC100BDA0F4E
:1042900062F3DF7141EC100B2BE0012808DB6FF3B8
:1042A0001E5141EA005052EC181B40EC181B1CE058
:1042B00010F1360F0ADC0CF047F9222101604CF2B4
:1042C00051308442DDDA9FED120BDCE736306FF3BC
:1042D0001E519FED0D0B41EA005152EC180B53ECAF
:1042E000102B00F027FB41EC180BB0EE480AF0EE63
:1042F000680ABDEC028B10BD0000000000005043B6
:1043000059F3F8C21F6EA501000000000000903CA8
:104310000000000000000000000000000000F07F2E
:10432000AF3CFFFF2DE9FE4F05460F465818AE681B
:104330007168884202D96FF0030564E0DFF8E88015
:104340000C9C4FF0FF3199469246D8F800000CF0D3
:1043500086F8E00711D1A0071ED5306851464A46BD
:104360003844CAB111F8013B10F8014B013A1C4026
:10437000A342F6D06FF0060541E0D8E90101CB4336
:1043800001EA090213EA090F18BF0244284639401E
:1043900003F0A6FD054690BB3068029701960744DE
:1043A00007F0F6FDCB4655460090BBF1000F16D046
:1043B0005E46BBF1080F28BF08260BF0CBFE8046F7
:1043C0002846394632460AF075FB044640460CF052
:1043D000DCF82CB937443544ABEB060BE5E7002499
:1043E00000980AF035F8DFF84080DDE901210C98EB
:1043F00014B14FF0FF3502E0400707D40025D8F88C
:1044000000000CF057F92846BDE8FE8F10680844FC
:10441000B9F1000FF2D010F8011B1AF8012BA9F125
:1044200001098A42F4D0E4E750070020B0B50C46F9
:10443000880722D4600758BFB0BD354D0120A87051
:10444000042008F0F5FD33480068006B8047E86001
:104450002D48806BF0B16968046961B1A1420AD04E
:1044600094F82800400704D5636A204604210022FE
:104470009847012060766C600DE0FEF707FD22484A
:10448000006CE0B3214844F002012830BDE8B040A0
:104490000CF014B96C6860681F490078086002204D
:1044A00008F0C6FD102002F01BFA012028761B48F8
:1044B000807810B90D2002F013FA68684168184836
:1044C0008A680AB9C96821B100218160154940F89C
:1044D000141C154907220A60016800210160426826
:1044E00041601249124AE9610168114301601A20D2
:1044F0000CF0CEF81920BDE8B0400CF0C9B8BDE80A
:10450000B04005F03DB900BF300500206804002030
:10451000C80200208C010010D0210840A820010012
:1045200014100440510007060000046035380000F4
:10453000024000402DE9F047A4B00BF00BFE3449D7
:104540000A78012A04D124B0BDE8F0470CF01DB868
:104550004FF0010981F800900CF017F8FFF7A8FB65
:10456000082002F0BDF921AC20460BF0E9FB4FF02A
:10457000FF30294A102123462290264807F044FEA6
:104580002648284D00260DF1040A0478244890F8A6
:1045900000804746A74212D8286850F8271021F01B
:1045A000FF004AF82700880707D4F8B201F001019C
:1045B0000BF0BEFB09FA07F006430137EAE71A4899
:1045C00006601A48C16801F44001B1F5800F09D1B5
:1045D0000068000E18BF01205AF8201041F00701B2
:1045E0004AF820101248A4EB080204230AEB8801C1
:1045F00003EB820240EA88000CF0BCF80D48202250
:10460000016862F30D21016024B0BDE8F08700BFAE
:10461000B7070020606400207DB80000BB170100D0
:10462000A30F010078200100D0200240A84F0050C5
:104630000010084000300940FEB5D0E9005401A840
:104640000BF06EFB95F834003649374A384E085C5B
:1046500095F83510515C354A084395F83610515C91
:104660002A6B40EA0103316820684F680299B84715
:10467000206840F2F272E1692E4B2F4F426494F8A9
:1046800054209A5C94F85530FB5C1A43012942632C
:1046900011D10146D4E90A2351F8307FFF2A27F4CB
:1046A000004718BF07F50047FF2B0F6009D00A68C5
:1046B00042F4804208E0014651F8302F22F40042D3
:1046C0000A600A6822F480420A60C16A41F010015F
:1046D000C162016B41F001010163E16B09B3A16BA0
:1046E000F9B101210BF056F8D5F85801E16B40689B
:1046F0000068C162C0F8041591FAA1F17268B1FABC
:1047000081F15368022298477068A16B02224368C6
:10471000D5F8580191FAA1F1B1FA81F14068006829
:104720009847FEBD70210100B91701005621010014
:10473000D0010010602101005B2101002DE9FF473D
:10474000012910DB17680C4635490646DDF8308034
:104750009946154638460BF035FA30B1314938469E
:104760000BF030FA30B3072737E0DFF8BCA09AF837
:10477000000088B39AF8020070BB9AF8010058BB99
:10478000022C2ED3686803A90AF0F2FC074620BB6E
:10479000032C28D3A86802A90AF0EAFC0746E0B96E
:1047A000042C22D3E86801A90AF0E2FC0746A0B96C
:1047B00001981CE01C48017871B1817801290BD166
:1047C00000278770304609F0E1FA1848184A414638
:1047D0000097C389484620E00D27384604B0BDE85D
:1047E000F0871E2003906420029000200190012198
:1047F0000E4C00278AF802100399E781A08161819D
:104800000299216109F04EF822690146304605F00F
:104810002FFB084A48464146002307F0E9F9DCE748
:10482000550D0100880D01005D020020E806002002
:10483000540E0100240E01002DE9FE4F4FF480407C
:104840000BF08EFAA0B1354C35496068D1F81320D1
:1048500009786FF39F5201F00401806842EA4171C8
:1048600001AA01F0F5F960688168012009F042FFB2
:104870002E482C4F2C4D44F2020B00244FF0000A1E
:1048800000F14009BAF1020F3CD055F82A80D8F85F
:104890000000A0B3D8F8000080690BF061FA06466A
:1048A000D8F800000023324609F0BCF916F00A0FD0
:1048B0001ED0D8F800008069B9686BEA0000084093
:1048C000B860D8F80000C069396821EA0000386093
:1048D0001020D8F8001009F00DFFD8F80010484655
:1048E00009F060FC002044F00204C8F8000006E073
:1048F0002EB1D8F800000D4944F4804408650AF14F
:10490000010ABFE724B10A48214628300BF0D6FE41
:1049100002F0FCFDBDE8FE4FFDF77AB8C8020020AA
:10492000850300210C100440FC200100300500200C
:10493000680400202DE9FC4191EA03084CBF4FF0C8
:1049400000484FF000084FEAC32545EA52554FEAA8
:10495000C2264FEA43077F0D11BF45F000450021F5
:104960000020BDE8FC815FF4E06E1EF1FF0E77458C
:1049700055D04FEAC12343EA50534FEAC0224FEAD1
:104980004104640D11BF43F0004300210020BDE845
:10499000FC81744543D0E419A3FB0501A3FB06E7A2
:1049A000A2FB06631EEB030E57F1000751F1000155
:1049B000A2FB05631EEB060E57F1000751F1000143
:1049C000FF1851F10001C01951F100014CBF40F234
:1049D000004E40F2002E10EB0E0051F1000148BFD6
:1049E000641C01D4400049415FF44077FF37E41B69
:1049F000DEBF00210020BDE8FC8117F58067BC42C6
:104A00000DD24FEAD02040EA41504FEA41014FEA2F
:104A1000113141EA045141EA0801BDE8FC8100205E
:104A2000FF21C900C91D090551EA0801BDE8FC8143
:104A30002DE9F041056804464FF0FF30E8620BF0C5
:104A400089FB804695F83000042809D1334949781C
:104A500031B1334903228A604A6822F003024A6076
:104A60002E4F6B692F4E00217A68B34204D01AB9D9
:104A70007978002918BF01210023042804D11AB134
:104A80007B78002B18BF012341EA0300012808BFEF
:104A900008F0A8FD95F8320030B140460BF075FDE6
:104AA0004FF0FF30BDE8F08195F83000042804D1C4
:104AB000381D294609F059FA03E0381D294609F046
:104AC00071FB012085F8320040460BF05EFD0020AE
:104AD000FEF788FD246894F83000012812D00228DF
:104AE00013D00428DCD10E4DD4E90901884211D23B
:104AF00001200BF0DCFC28688007F9D00020FEF7CD
:104B000071FDF1E70020BDE8F081216A04F1340075
:104B10000BF0A5FCE06ABDE8F08100BF5006002064
:104B20000880024080A9030070B516460D4600F1CA
:104B3000500431B12EB9AA882968204609F0CAFE6E
:104B400003E0204600210AF078F800285ED10DB17C
:104B5000697D00E0002120460BF047FD002855D17B
:104B6000204680210BF041FD00284FD125B1E87D82
:104B7000302101EA001100E0002120460AF05DF832
:104B8000002843D1204606F033FE00283ED10DB167
:104B9000A97900E0002120460BF027FDB0BB0DB144
:104BA000A97D00E0002120460BF01FFD70BB15B170
:104BB000D5E9022301E000220023204604F0A8FEEC
:104BC00020BB204606F0AEFF00BB204606F010FEDC
:104BD000E0B9204631460AF03FF8B8B9204606F061
:104BE000A1FF98B9204606F003FE78B90DB1297DE2
:104BF00000E0002120460BF0F8FC38B90DB129691E
:104C000000E00021204607F0D9FE08B1012070BD68
:104C1000204606F087FF002818BF012070BD7047AE
:104C20002DE9F04742F22C0940F2100A42F20C063C
:104C300040F2B81715460C468046C4F20909C4F282
:104C4000090AC4F20806C1F2000703F0C9F844F2E9
:104C50000C00C4F2090000210160D9F80000386896
:104C6000816927208847306B4FF6FF71CFF6FE61D0
:104C700008403063B06F20F48070B0673868016B13
:104C80004FF4806088473868016B4FF48160884733
:104C90003868016B4FF4C060884742F22800C6F2C2
:104CA000080001210160C6F880413160DAF8000097
:104CB000800705D4681C08BF4FF04045CAF80C5067
:104CC000D9F80000F0698007FCD500BF072006F086
:104CD000F7FD0228FAD1B8F1000F16D144F2000412
:104CE000C4F20304386A8168204688470428F9D052
:104CF000012804D1386A0321426820469047D6F83B
:104D0000180220F00300C6F818023868806BBDE86E
:104D1000F04700472DE9FC4706680446707A0028F2
:104D20006BD0D4F80490D6F85801D0F80480D9F8A4
:104D30003470204604F052FB706F20B306F14C052E
:104D400028460BF0B3FC316F884221D2307902281B
:104D50001ED0B06E002850D0204604F03FFB346FC8
:104D600028460BF0A3FC201AD6F868A0B46F706731
:104D700028460BF09BFC0021F1740AEB0401084467
:104D80000190706F0CE0B06E10B1306F0028D5D17B
:104D900006F14C0001A908F070FB01217067F17465
:104DA00058B30021B173B0F5806F84BF4FF48060B9
:104DB0007067019901230144013979601049B96094
:104DC00043F6F07101EB00100840B9680843B86081
:104DD000D9F83C10D9F8000091FAA1F2B2FA82F2A7
:104DE00003FA02F2D8F800309A61D6F858215268D6
:104DF0001268916201210AF0D9FCBDE8FC8700BF6E
:104E00000180000C2DE9F0478EB00446033810F104
:104E1000030F03D80BF098FB162152E000268946B9
:104E2000904600203C211660059605AB002207F055
:104E30008FFB002842D02B49CDE908660A9008ABC9
:104E40000022824607F0C6FFD9F80C005746CAF880
:104E50002400D9F8080047F82C6F7E60FC6047F802
:104E6000040CD9F800000328B86036D100200022D5
:104E70000D90CDE90B0001208DF82C000BA900202E
:104E800009F01CFBCAF83000A8B1D9F8101051B9CC
:104E9000DFF854C04FF40071CCF8081069469CE864
:104EA00079000A4679C20120104A53460861384603
:104EB00000F04AFA58B1504608F082FA0BF044FB71
:104EC0000C2101604FF0FF300EB0BDE8F087DAF83A
:104ED0002C10DAF82400C96888630020C8F800A004
:104EE000F2E700BF51FF0000FC060020EDFB0000D0
:104EF00070B541F21C30C5F20000066840F2B014F3
:104F0000C1F2000408F074FA40F28440C4F2602058
:104F100000250560206C806C804740F28010C4F250
:104F20002830006850B140F28051C4F22031B6F10F
:104F3000FF30096818BF304601F01CF842F28C11AE
:104F4000C4F208010D6042F24801C4F203010A688C
:104F500040F23913282063F31B42C4F209000A60AF
:104F6000016801F44051B1F5805F09D101684FF645
:104F7000EF72CFF6FC42114001F500320260016091
:104F80000025C4F224350126EE612068016A142050
:104F9000884742F20000C4F20900016841F4E021B0
:104FA000016044F6B4702E60C5F20000006800F4A1
:104FB0004000B0F5000F06D1206C416C43F2BD708B
:104FC000C0F2860088470C20C4F2682001680029DE
:104FD000FCD170BD2DE9F0418EB004464A1E002080
:104FE00012F1030F0AD809AA0490029107922F4ADE
:104FF00006928DF814000222684600E003220C900D
:105000008DF834202020EFF3118680F31188608A18
:1050100030B1608A01386082012086F3118842E055
:1050200000293DD02248012104F1140790F808809E
:105030000172806909AD45620B9007F02FFAA069F3
:1050400009970A900560A5619DF83400022808D1EF
:1050500018494A680C98016042601060486002F08C
:1050600033FB86F31188404607F054FA2021EFF312
:10507000118081F311880C9939B10A684B681A6064
:105080004A6809684A6000210C910B9900224A6223
:1050900080F311889DF83400002818BF012002E039
:1050A00086F3118800200EB0BDE8F0816DCF0000BE
:1050B000D8050020000400202DE9FF4100F1800503
:1050C0000C4603A90DF10A02284608F093FB074697
:1050D00000285CD1BDF80A207F2A57D820680399A0
:1050E000A2800BF047FBA11D284609F037FF0746B9
:1050F00000284CD10027264646F8147FB079314667
:10510000B04648F8047D00F0E8000430B07140F685
:10511000047021F8040F284609F020FFB8BB711D68
:10512000284609F01BFF78BB0DF109010BF036FA98
:1051300050BB0DF107010BF031FA28BB02A90BF0AF
:105140002DFA08BB0DF106010BF028FAE0B928464C
:10515000414609F0E7FEB8B92846314609F0E2FEBB
:1051600090B9A07E9DF8091000F0E80040EA8100A7
:105170009DF8071008439DF8081040EA41009DF88B
:10518000061040EA0110A076002700E00627384606
:1051900004B0BDE8F08170472DE9F84FDDF82880B4
:1051A0009A46D9B10F46814610682A4993460AF0BB
:1051B00041FC20B9013F380610D00BF1040B00244C
:1051C000254E8AF80040DBF800503C2C15D03159B0
:1051D00028460AF02FFCC8B10C34F6E70BF0E6F8CD
:1051E0002049214B214A0028504618BF0B46414612
:1051F00006F0FEFC0020BDE8F88F1848F9B25A46C8
:105200005346CDF8008001F093F814E03019D0E94E
:10521000015109EB6100C90701D001684D59F9B28C
:105220000022CDF800805346012988BF0BF104020B
:10523000791EC9B2A847F9B2022909D3232807D198
:10524000DBF80030064A5046414606F0D1FC2320E8
:10525000BDE8F88F66170100881D0100205C002062
:1052600094170100831701008B1701006A170100D2
:105270002DE9F84F044600F1580878301E46934651
:105280000D46002704F1680A0090B74246D0B4F8F2
:105290009A00102815D1772094F89C10A0F168028C
:1052A0008A4206DD215C01312154CAB201388A42AA
:1052B000F2D1009A204651460BF012FA0020A4F8D1
:1052C0009A000A9959B1421C1BF807102044A4F80F
:1052D0009A2090F878004840294681460AE0411C0F
:1052E00015F807902044A4F89A10594690F87800D1
:1052F00080EA0900C855B4F89800102802D10BF0D4
:105300009FF80020411C20440137A4F8981090F821
:10531000581081EA090180F85810B6E7D4E9240151
:1053200031448142C4F894100CD3B4F8980008B109
:105330000BF086F894F89C100819C1F10F01693040
:105340000AF064FCBDE8F88F2DE9F0438FB00C46FD
:10535000002730491546814624229846009703A825
:105360000BF008FA6B46002050210022C9F80070AB
:1053700007F0EEF8002848D0074627484FF40071A0
:10538000002C07F14806816008BF0446D4E90032CA
:105390000021A0680792002A4FF0000208BFE268CF
:1053A000FE64F963C7E90D51F9627964BB6010448A
:1053B0002369002B18BF01233B63BE6408900C9146
:1053C000CDE90D11CDF82880CDE904574FF0FF331A
:1053D000012000218DF83000069307F110000CAA7F
:1053E00008F04CFD0D4803A96A4607F075F8F8600F
:1053F00040B14563C9F800702168F86801F016FAF9
:10540000002003E0384608F021FA0C200FB0BDE878
:10541000F08300BF8C1E0100FC060020A7FC0000EA
:10542000F0B5314A046A516B137D0C61446A01F195
:10543000200C032B0B704C61846A8C61C46ACC61B4
:1054400090E8F000ACE8F00000F1400400F1100733
:105450004C64F0CF01F1300CACE8F000046B0C644C
:10546000446B8C64846BC06BCC6408650BD8DFE83C
:1054700003F0020D1016156DC4B2106C936C55F844
:1054800024404C600FE0002000230CE01748406DE2
:1054900006E0174880694860D0E90A3003E0002040
:1054A0004860106C936C926BC1E9020332B12BB16E
:1054B00010F8014B013B02F8014BF8E70D48026878
:1054C0004A6590F824208A6590F82520CA65C28C28
:1054D0000A66826A4A66C26A8A66026BCA66426B5A
:1054E0000A67806B4867F0BD3003002098030020F6
:1054F000D805002004ED00E0F0B585B004469068C2
:10550000002808D4304FB84205D8906915460028C5
:1055100001D4B84207D90BF017F8162101604FF0FB
:10552000FF3005B0F0BD0E461BB12046194605F010
:1055300009F8D5E90401014301D1A969B1B37107A3
:105540001AD4A9694FF47A72204B91FBF2F100FB57
:1055500003100A210930B0FBF1F0A0602868AD68A3
:1055600095FBF2F200FB03200930B0FBF1F0206163
:1055700020460AF00EFA17E0A06B694600F096FC90
:10558000D5E90402DDE90013461A72EB030608DBD5
:1055900080EA01065A4032430BD1AA69029B93422A
:1055A00009DBD4E9091088470020BAE700202075FC
:1055B000B7E7AA69029B401AD11AB1F1FF3FC1DCDB
:1055C000394401380131BDE7FFC99A3B40420F0021
:1055D0002DE9FC47074690F81609C8B10D4640F082
:1055E000800100201C46164622B132681278C2F3B0
:1055F000001901E04FF0000907F1500895F81AA0D2
:1056000087F8160906220023404608F0D1FF08B1AA
:10561000BDE8FC87204608F0AFFE0146404609F091
:105620001BFB0028F4D1404649460AF0E1FF002860
:10563000EED10AF00109404649460AF0D9FF002898
:10564000E6D164B1B9F1000F1EBF2868007810F0F0
:1056500008000CD1404609F04DF9BDE8FC873846FA
:1056600031460022FFF760FA0028D1D1EAE70DF1B8
:105670000701284607F08CF80028C9D1694628465A
:1056800008F031FD0028C3D19DF8071040460AF00C
:10569000ACFF0028BCD10099404607F08FF90028E4
:1056A000B6D1D7E7F8B5051D0160044600F1D10178
:1056B0004FF40062284609F0EDF8002704F1540089
:1056C00022212565C4E91E770AF0A0FA04F18000C2
:1056D0000AF054FE4FF6FF702249264684F898706F
:1056E000A4F8A800C820C4F8A4001F48C4E9277182
:1056F000182146F8AC0F04F1B0000AF087FA1B48F5
:105700001121C4F81079C4F83079C4F8347984F8D8
:10571000D378A4F8D17884F8D070C4F813790068ED
:10572000C4F8CC00042084F8C800FF20A4F81709AE
:1057300004F61C100AF06AFA0D480E49224604606D
:1057400028460AF049FF04F6D4003C210AF05EFA2C
:1057500004F1B80077210AF0BAFE30460AF0CEF91B
:105760002046F8BD00F8FF07D50201006C210100BA
:10577000BC070020D10601002DE9F0478EB0304F64
:1057800004464FF000097E7887F8019026B9386EFC
:105790000026007880061ED4002502203870C7F845
:1057A00060900AF003FE38B12648324600F140010D
:1057B00020460AF04AFF07E022482A46334600F115
:1057C000400120460AF0E0F915B168460AF065FE8E
:1057D0000EB0BDE8F0871B48E84608F10805006CEC
:1057E00090F802A018480C96CDE9004100680B9093
:1057F00010B30179032911D1387804280CD140461F
:1058000000F05AF940B90298017801F00701022925
:1058100002D1807850450CD0DDE90B0616B906465A
:105820000C9001E0B04202D000680B90E0E700204D
:10583000FBE70DB10026B0E700250E26ADE700BF5F
:1058400060020020D00400208807002070B5F8B165
:10585000012858D101200AF0A7FC012853D02D4C73
:1058600094F8380100284ED12848294E056930683F
:1058700010F4402F30D17DB308F0FCFE50200AF028
:1058800016FE0120A84704F194000AF0FDFE25E071
:105890000AF002FF1E48006810F4402F0AD11B488E
:1058A00004693CB11B4894300AF069FE08F0D2FE4E
:1058B0000020A047174C94F8380120B3164801681F
:1058C00021F08001016080218160032007F0E2F86F
:1058D000002084F8380116E00AF0E2FE012084F886
:1058E0003801306810F4402F00D14DB9207A80067D
:1058F00006D4094880218160016841F0800101607F
:10590000032007F095FB002070BD00BF18200100A8
:10591000B44F005000000020902208402DE9F041D3
:10592000B0B0044600200D462F9002A809F02AFED0
:1059300020680078000752D50DF1BB01204609F020
:1059400009F800284BD12FA9204608F0CCFB0028ED
:1059500045D10DF1AE089DF8BB202F99284643464E
:1059600009F0D2FAA16802AD284609F0FFFD2046F1
:1059700009F03AFB074620460AF0A2FA06462046FE
:1059800009F0ACFC02460D203146CDE90080B81E7E
:10599000C3B22846FDF7F8FC266820460AF090FAC4
:1059A00002462846314604F033FA20460AF0B0F8A1
:1059B0000646204609F092FC034600203146324656
:1059C00000902846FFF754FC20460AF081FA014671
:1059D000284607F0A5FBA07E40F01000A07602A8A4
:1059E0000AF0BAFC30B0BDE8F0812DE9F84F8346EB
:1059F00000F63C15061D00F58B574FF000084FF0E0
:105A000001094FF0020A304609F075FC397810B1EF
:105A100002292BD041E029B1022927D00129F2D156
:105A2000797835E0584609F004FF08B107F017F817
:105A3000584609F02AFF80BB28460AF027FB60BBC6
:105A4000304606F0A0FF87F80090304609F049FF85
:105A5000C8B19BF89840304601F0ECFD24B19BF8AA
:105A6000980008B987F80C9287F800A0284606F03D
:105A700015F890B997F80C0287F800800028C2D07A
:105A800087F80C82BFE7304607F03EFA014678708F
:105A9000284604F05DF90028D7D0DBF858190BF63A
:105AA0005E10091A0A0408BFBDE8F88FDBF8382930
:105AB00089B2BDE8F84F10472DE9F843C66A04469D
:105AC00016F8088F08EB060757F8039C04F0E8FD6A
:105AD000054628480068006B80470246731C204634
